{
  "abi": [
    {
      "inputs": [
        {
          "internalType": "contract IERC721",
          "name": "_nftCollection",
          "type": "address"
        },
        {
          "internalType": "contract IERC20",
          "name": "_rewardsToken",
          "type": "address"
        }
      ],
      "stateMutability": "nonpayable",
      "type": "constructor"
    },
    {
      "inputs": [
        {
          "internalType": "address",
          "name": "_staker",
          "type": "address"
        }
      ],
      "name": "availableRewards",
      "outputs": [
        {
          "internalType": "uint256",
          "name": "",
          "type": "uint256"
        }
      ],
      "stateMutability": "view",
      "type": "function"
    },
    {
      "inputs": [],
      "name": "claimRewards",
      "outputs": [],
      "stateMutability": "nonpayable",
      "type": "function"
    },
    {
      "inputs": [
        {
          "internalType": "address",
          "name": "_user",
          "type": "address"
        }
      ],
      "name": "getStakedTokens",
      "outputs": [
        {
          "components": [
            {
              "internalType": "address",
              "name": "staker",
              "type": "address"
            },
            {
              "internalType": "uint256",
              "name": "tokenId",
              "type": "uint256"
            }
          ],
          "internalType": "struct ERC721Staking.StakedToken[]",
          "name": "",
          "type": "tuple[]"
        }
      ],
      "stateMutability": "view",
      "type": "function"
    },
    {
      "inputs": [],
      "name": "nftCollection",
      "outputs": [
        {
          "internalType": "contract IERC721",
          "name": "",
          "type": "address"
        }
      ],
      "stateMutability": "view",
      "type": "function"
    },
    {
      "inputs": [],
      "name": "rewardsToken",
      "outputs": [
        {
          "internalType": "contract IERC20",
          "name": "",
          "type": "address"
        }
      ],
      "stateMutability": "view",
      "type": "function"
    },
    {
      "inputs": [
        {
          "internalType": "uint256",
          "name": "_tokenId",
          "type": "uint256"
        }
      ],
      "name": "stake",
      "outputs": [],
      "stateMutability": "nonpayable",
      "type": "function"
    },
    {
      "inputs": [
        {
          "internalType": "uint256",
          "name": "",
          "type": "uint256"
        }
      ],
      "name": "stakerAdress",
      "outputs": [
        {
          "internalType": "address",
          "name": "",
          "type": "address"
        }
      ],
      "stateMutability": "view",
      "type": "function"
    },
    {
      "inputs": [
        {
          "internalType": "address",
          "name": "",
          "type": "address"
        }
      ],
      "name": "stakers",
      "outputs": [
        {
          "internalType": "uint256",
          "name": "amountStaked",
          "type": "uint256"
        },
        {
          "internalType": "uint256",
          "name": "timeOfLastUpdate",
          "type": "uint256"
        },
        {
          "internalType": "uint256",
          "name": "unclaimedRewards",
          "type": "uint256"
        }
      ],
      "stateMutability": "view",
      "type": "function"
    },
    {
      "inputs": [
        {
          "internalType": "uint256",
          "name": "_tokenId",
          "type": "uint256"
        }
      ],
      "name": "withdraw",
      "outputs": [],
      "stateMutability": "nonpayable",
      "type": "function"
    }
  ],
  "devdoc": {
    "kind": "dev",
    "methods": {},
    "version": 1
  },
  "evm": {
    "assembly": "    /* \"NftStaking.sol\":305:4215  contract ERC721Staking is  ReentrancyGuard {... */\n  mstore(0x40, 0xc0)\n    /* \"NftStaking.sol\":943:948  10000 */\n  0x2710\n    /* \"NftStaking.sol\":910:948  uint256 private rewardsPerHour = 10000 */\n  0x01\n  sstore\n    /* \"NftStaking.sol\":473:616  constructor(IERC721 _nftCollection, IERC20 _rewardsToken) {... */\n  callvalue\n  dup1\n  iszero\n  tag_1\n  jumpi\n  0x00\n  dup1\n  revert\ntag_1:\n  pop\n  mload(0x40)\n  sub(codesize, bytecodeSize)\n  dup1\n  bytecodeSize\n  dup4\n  codecopy\n  dup2\n  add\n  0x40\n  dup2\n  swap1\n  mstore\n  tag_2\n  swap2\n  tag_3\n  jump\t// in\ntag_2:\n    /* \"@openzeppelin/contracts/security/ReentrancyGuard.sol\":1716:1717   */\n  0x01\n    /* \"@openzeppelin/contracts/security/ReentrancyGuard.sol\":1821:1828   */\n  0x00\n    /* \"@openzeppelin/contracts/security/ReentrancyGuard.sol\":1821:1843   */\n  sstore\n  sub(shl(0xa0, 0x01), 0x01)\n    /* \"NftStaking.sol\":541:571  nftCollection = _nftCollection */\n  swap2\n  dup3\n  and\n  0xa0\n  mstore\n    /* \"NftStaking.sol\":581:609  rewardsToken = _rewardsToken */\n  and\n  0x80\n  mstore\n    /* \"NftStaking.sol\":305:4215  contract ERC721Staking is  ReentrancyGuard {... */\n  jump(tag_10)\n    /* \"#utility.yul\":14:154   */\ntag_9:\n  sub(shl(0xa0, 0x01), 0x01)\n    /* \"#utility.yul\":98:129   */\n  dup2\n  and\n    /* \"#utility.yul\":88:130   */\n  dup2\n  eq\n    /* \"#utility.yul\":78:148   */\n  tag_12\n  jumpi\n    /* \"#utility.yul\":144:145   */\n  0x00\n    /* \"#utility.yul\":141:142   */\n  dup1\n    /* \"#utility.yul\":134:146   */\n  revert\n    /* \"#utility.yul\":78:148   */\ntag_12:\n    /* \"#utility.yul\":14:154   */\n  pop\n  jump\t// out\n    /* \"#utility.yul\":159:592   */\ntag_3:\n    /* \"#utility.yul\":268:274   */\n  0x00\n    /* \"#utility.yul\":276:282   */\n  dup1\n    /* \"#utility.yul\":329:331   */\n  0x40\n    /* \"#utility.yul\":317:326   */\n  dup4\n    /* \"#utility.yul\":308:315   */\n  dup6\n    /* \"#utility.yul\":304:327   */\n  sub\n    /* \"#utility.yul\":300:332   */\n  slt\n    /* \"#utility.yul\":297:349   */\n  iszero\n  tag_14\n  jumpi\n    /* \"#utility.yul\":345:346   */\n  0x00\n    /* \"#utility.yul\":342:343   */\n  dup1\n    /* \"#utility.yul\":335:347   */\n  revert\n    /* \"#utility.yul\":297:349   */\ntag_14:\n    /* \"#utility.yul\":377:386   */\n  dup3\n    /* \"#utility.yul\":371:387   */\n  mload\n    /* \"#utility.yul\":396:436   */\n  tag_15\n    /* \"#utility.yul\":430:435   */\n  dup2\n    /* \"#utility.yul\":396:436   */\n  tag_9\n  jump\t// in\ntag_15:\n    /* \"#utility.yul\":505:507   */\n  0x20\n    /* \"#utility.yul\":490:508   */\n  dup5\n  add\n    /* \"#utility.yul\":484:509   */\n  mload\n    /* \"#utility.yul\":455:460   */\n  swap1\n  swap3\n  pop\n    /* \"#utility.yul\":518:560   */\n  tag_16\n    /* \"#utility.yul\":484:509   */\n  dup2\n    /* \"#utility.yul\":518:560   */\n  tag_9\n  jump\t// in\ntag_16:\n    /* \"#utility.yul\":579:586   */\n  dup1\n    /* \"#utility.yul\":569:586   */\n  swap2\n  pop\n  pop\n    /* \"#utility.yul\":159:592   */\n  swap3\n  pop\n  swap3\n  swap1\n  pop\n  jump\t// out\ntag_10:\n    /* \"NftStaking.sol\":305:4215  contract ERC721Staking is  ReentrancyGuard {... */\n  mload(0x80)\n  mload(0xa0)\n  codecopy(0x00, dataOffset(sub_0), dataSize(sub_0))\n  0x00\n  assignImmutable(\"0x8e8fab5f003314da8d1873ea7720e8d9f47650136d916064d1edb8a11d682624\")\n  0x00\n  assignImmutable(\"0x5c4c6aa067b6f8e6cb38e6ab843832a94d1712d661a04d73c517d6a1931a9e5d\")\n  return(0x00, dataSize(sub_0))\nstop\n\nsub_0: assembly {\n        /* \"NftStaking.sol\":305:4215  contract ERC721Staking is  ReentrancyGuard {... */\n      mstore(0x40, 0x80)\n      callvalue\n      dup1\n      iszero\n      tag_1\n      jumpi\n      0x00\n      dup1\n      revert\n    tag_1:\n      pop\n      jumpi(tag_2, lt(calldatasize, 0x04))\n      shr(0xe0, calldataload(0x00))\n      dup1\n      0x6e947e45\n      gt\n      tag_12\n      jumpi\n      dup1\n      0xa694fc3a\n      gt\n      tag_13\n      jumpi\n      dup1\n      0xa694fc3a\n      eq\n      tag_9\n      jumpi\n      dup1\n      0xd1af0c7d\n      eq\n      tag_10\n      jumpi\n      dup1\n      0xf854a27f\n      eq\n      tag_11\n      jumpi\n      0x00\n      dup1\n      revert\n    tag_13:\n      dup1\n      0x6e947e45\n      eq\n      tag_7\n      jumpi\n      dup1\n      0x9168ae72\n      eq\n      tag_8\n      jumpi\n      0x00\n      dup1\n      revert\n    tag_12:\n      dup1\n      0x2e1a7d4d\n      eq\n      tag_3\n      jumpi\n      dup1\n      0x372500ab\n      eq\n      tag_4\n      jumpi\n      dup1\n      0x63c28db1\n      eq\n      tag_5\n      jumpi\n      dup1\n      0x6588103b\n      eq\n      tag_6\n      jumpi\n    tag_2:\n      0x00\n      dup1\n      revert\n        /* \"NftStaking.sol\":1762:2669  function withdraw(uint256 _tokenId) external nonReentrant {... */\n    tag_3:\n      tag_14\n      tag_15\n      calldatasize\n      0x04\n      tag_16\n      jump\t// in\n    tag_15:\n      tag_17\n      jump\t// in\n    tag_14:\n      stop\n        /* \"NftStaking.sol\":2675:3045  function claimRewards() external {... */\n    tag_4:\n      tag_14\n      tag_19\n      jump\t// in\n        /* \"NftStaking.sol\":3537:4212  function getStakedTokens(address _user) public view returns (StakedToken[] memory) {... */\n    tag_5:\n      tag_20\n      tag_21\n      calldatasize\n      0x04\n      tag_22\n      jump\t// in\n    tag_21:\n      tag_23\n      jump\t// in\n    tag_20:\n      mload(0x40)\n      tag_24\n      swap2\n      swap1\n      tag_25\n      jump\t// in\n    tag_24:\n      mload(0x40)\n      dup1\n      swap2\n      sub\n      swap1\n      return\n        /* \"NftStaking.sol\":428:466  IERC721 public immutable nftCollection */\n    tag_6:\n      tag_26\n      immutable(\"0x8e8fab5f003314da8d1873ea7720e8d9f47650136d916064d1edb8a11d682624\")\n      dup2\n      jump\n    tag_26:\n      mload(0x40)\n      sub(shl(0xa0, 0x01), 0x01)\n        /* \"#utility.yul\":1636:1691   */\n      swap1\n      swap2\n      and\n        /* \"#utility.yul\":1618:1692   */\n      dup2\n      mstore\n        /* \"#utility.yul\":1606:1608   */\n      0x20\n        /* \"#utility.yul\":1591:1609   */\n      add\n        /* \"NftStaking.sol\":428:466  IERC721 public immutable nftCollection */\n      tag_24\n        /* \"#utility.yul\":1456:1698   */\n      jump\n        /* \"NftStaking.sol\":1003:1050  mapping(uint256 => address) public stakerAdress */\n    tag_7:\n      tag_26\n      tag_31\n      calldatasize\n      0x04\n      tag_16\n      jump\t// in\n    tag_31:\n      mstore(0x20, 0x03)\n      0x00\n      swap1\n      dup2\n      mstore\n      0x40\n      swap1\n      keccak256\n      sload\n      sub(shl(0xa0, 0x01), 0x01)\n      and\n      dup2\n      jump\n        /* \"NftStaking.sol\":955:996  mapping(address => Staker) public stakers */\n    tag_8:\n      tag_35\n      tag_36\n      calldatasize\n      0x04\n      tag_22\n      jump\t// in\n    tag_36:\n      0x02\n      0x20\n      dup2\n      swap1\n      mstore\n      0x00\n      swap2\n      dup3\n      mstore\n      0x40\n      swap1\n      swap2\n      keccak256\n      dup1\n      sload\n      swap2\n      dup2\n      add\n      sload\n      0x03\n      swap1\n      swap2\n      add\n      sload\n      dup4\n      jump\n    tag_35:\n      0x40\n      dup1\n      mload\n        /* \"#utility.yul\":2136:2161   */\n      swap4\n      dup5\n      mstore\n        /* \"#utility.yul\":2192:2194   */\n      0x20\n        /* \"#utility.yul\":2177:2195   */\n      dup5\n      add\n        /* \"#utility.yul\":2170:2204   */\n      swap3\n      swap1\n      swap3\n      mstore\n        /* \"#utility.yul\":2220:2238   */\n      swap1\n      dup3\n      add\n        /* \"#utility.yul\":2213:2247   */\n      mstore\n        /* \"#utility.yul\":2124:2126   */\n      0x60\n        /* \"#utility.yul\":2109:2127   */\n      add\n        /* \"NftStaking.sol\":955:996  mapping(address => Staker) public stakers */\n      tag_24\n        /* \"#utility.yul\":1934:2253   */\n      jump\n        /* \"NftStaking.sol\":1057:1756  function stake(uint256 _tokenId) external nonReentrant {... */\n    tag_9:\n      tag_14\n      tag_41\n      calldatasize\n      0x04\n      tag_16\n      jump\t// in\n    tag_41:\n      tag_42\n      jump\t// in\n        /* \"NftStaking.sol\":386:422  IERC20 public immutable rewardsToken */\n    tag_10:\n      tag_26\n      immutable(\"0x5c4c6aa067b6f8e6cb38e6ab843832a94d1712d661a04d73c517d6a1931a9e5d\")\n      dup2\n      jump\n        /* \"NftStaking.sol\":3324:3531  function availableRewards(address _staker) public view returns (uint256) {... */\n    tag_11:\n      tag_47\n      tag_48\n      calldatasize\n      0x04\n      tag_22\n      jump\t// in\n    tag_48:\n      tag_49\n      jump\t// in\n    tag_47:\n      mload(0x40)\n        /* \"#utility.yul\":2649:2674   */\n      swap1\n      dup2\n      mstore\n        /* \"#utility.yul\":2637:2639   */\n      0x20\n        /* \"#utility.yul\":2622:2640   */\n      add\n        /* \"NftStaking.sol\":3324:3531  function availableRewards(address _staker) public view returns (uint256) {... */\n      tag_24\n        /* \"#utility.yul\":2503:2680   */\n      jump\n        /* \"NftStaking.sol\":1762:2669  function withdraw(uint256 _tokenId) external nonReentrant {... */\n    tag_17:\n        /* \"@openzeppelin/contracts/security/ReentrancyGuard.sol\":2261:2282   */\n      tag_53\n        /* \"@openzeppelin/contracts/security/ReentrancyGuard.sol\":2261:2280   */\n      tag_54\n        /* \"@openzeppelin/contracts/security/ReentrancyGuard.sol\":2261:2282   */\n      jump\t// in\n    tag_53:\n        /* \"NftStaking.sol\":1846:1856  msg.sender */\n      caller\n        /* \"NftStaking.sol\":1873:1874  0 */\n      0x00\n        /* \"NftStaking.sol\":1838:1857  stakers[msg.sender] */\n      swap1\n      dup2\n      mstore\n        /* \"NftStaking.sol\":1838:1845  stakers */\n      0x02\n        /* \"NftStaking.sol\":1838:1857  stakers[msg.sender] */\n      0x20\n      mstore\n      0x40\n      swap1\n      keccak256\n        /* \"NftStaking.sol\":1838:1870  stakers[msg.sender].amountStaked */\n      sload\n        /* \"NftStaking.sol\":1830:1904  require(stakers[msg.sender].amountStaked > 0, \"You have no tokens staked\") */\n      tag_56\n      jumpi\n      mload(0x40)\n      shl(0xe5, 0x461bcd)\n      dup2\n      mstore\n        /* \"#utility.yul\":2887:2889   */\n      0x20\n        /* \"NftStaking.sol\":1830:1904  require(stakers[msg.sender].amountStaked > 0, \"You have no tokens staked\") */\n      0x04\n      dup3\n      add\n        /* \"#utility.yul\":2869:2890   */\n      mstore\n        /* \"#utility.yul\":2926:2928   */\n      0x19\n        /* \"#utility.yul\":2906:2924   */\n      0x24\n      dup3\n      add\n        /* \"#utility.yul\":2899:2929   */\n      mstore\n        /* \"#utility.yul\":2965:2992   */\n      0x596f752068617665206e6f20746f6b656e73207374616b656400000000000000\n        /* \"#utility.yul\":2945:2963   */\n      0x44\n      dup3\n      add\n        /* \"#utility.yul\":2938:2993   */\n      mstore\n        /* \"#utility.yul\":3010:3028   */\n      0x64\n      add\n        /* \"NftStaking.sol\":1830:1904  require(stakers[msg.sender].amountStaked > 0, \"You have no tokens staked\") */\n    tag_57:\n      mload(0x40)\n      dup1\n      swap2\n      sub\n      swap1\n      revert\n    tag_56:\n        /* \"NftStaking.sol\":1922:1944  stakerAdress[_tokenId] */\n      0x00\n      dup2\n      dup2\n      mstore\n        /* \"NftStaking.sol\":1922:1934  stakerAdress */\n      0x03\n        /* \"NftStaking.sol\":1922:1944  stakerAdress[_tokenId] */\n      0x20\n      mstore\n      0x40\n      swap1\n      keccak256\n      sload\n      sub(shl(0xa0, 0x01), 0x01)\n      and\n        /* \"NftStaking.sol\":1948:1958  msg.sender */\n      caller\n        /* \"NftStaking.sol\":1922:1958  stakerAdress[_tokenId] == msg.sender */\n      eq\n        /* \"NftStaking.sol\":1914:1987  require(stakerAdress[_tokenId] == msg.sender, \"You don't own this token\") */\n      tag_59\n      jumpi\n      mload(0x40)\n      shl(0xe5, 0x461bcd)\n      dup2\n      mstore\n        /* \"#utility.yul\":3241:3243   */\n      0x20\n        /* \"NftStaking.sol\":1914:1987  require(stakerAdress[_tokenId] == msg.sender, \"You don't own this token\") */\n      0x04\n      dup3\n      add\n        /* \"#utility.yul\":3223:3244   */\n      mstore\n        /* \"#utility.yul\":3280:3282   */\n      0x18\n        /* \"#utility.yul\":3260:3278   */\n      0x24\n      dup3\n      add\n        /* \"#utility.yul\":3253:3283   */\n      mstore\n        /* \"#utility.yul\":3319:3345   */\n      0x596f7520646f6e2774206f776e207468697320746f6b656e0000000000000000\n        /* \"#utility.yul\":3299:3317   */\n      0x44\n      dup3\n      add\n        /* \"#utility.yul\":3292:3346   */\n      mstore\n        /* \"#utility.yul\":3363:3381   */\n      0x64\n      add\n        /* \"NftStaking.sol\":1914:1987  require(stakerAdress[_tokenId] == msg.sender, \"You don't own this token\") */\n      tag_57\n        /* \"#utility.yul\":3039:3387   */\n      jump\n        /* \"NftStaking.sol\":1914:1987  require(stakerAdress[_tokenId] == msg.sender, \"You don't own this token\") */\n    tag_59:\n        /* \"NftStaking.sol\":1998:2013  uint256 rewards */\n      0x00\n        /* \"NftStaking.sol\":2016:2044  calculateRewards(msg.sender) */\n      tag_62\n        /* \"NftStaking.sol\":2033:2043  msg.sender */\n      caller\n        /* \"NftStaking.sol\":2016:2032  calculateRewards */\n      tag_63\n        /* \"NftStaking.sol\":2016:2044  calculateRewards(msg.sender) */\n      jump\t// in\n    tag_62:\n        /* \"NftStaking.sol\":2062:2072  msg.sender */\n      caller\n        /* \"NftStaking.sol\":2054:2073  stakers[msg.sender] */\n      0x00\n      swap1\n      dup2\n      mstore\n        /* \"NftStaking.sol\":2054:2061  stakers */\n      0x02\n        /* \"NftStaking.sol\":2054:2073  stakers[msg.sender] */\n      0x20\n      mstore\n      0x40\n      dup2\n      keccak256\n        /* \"NftStaking.sol\":2054:2090  stakers[msg.sender].unclaimedRewards */\n      0x03\n      add\n        /* \"NftStaking.sol\":2054:2101  stakers[msg.sender].unclaimedRewards += rewards */\n      dup1\n      sload\n        /* \"NftStaking.sol\":1998:2044  uint256 rewards = calculateRewards(msg.sender) */\n      swap3\n      swap4\n      pop\n      dup4\n      swap3\n        /* \"NftStaking.sol\":2054:2090  stakers[msg.sender].unclaimedRewards */\n      swap1\n      swap2\n        /* \"NftStaking.sol\":2054:2073  stakers[msg.sender] */\n      swap1\n        /* \"NftStaking.sol\":2054:2101  stakers[msg.sender].unclaimedRewards += rewards */\n      tag_64\n      swap1\n        /* \"NftStaking.sol\":1998:2044  uint256 rewards = calculateRewards(msg.sender) */\n      dup5\n      swap1\n        /* \"NftStaking.sol\":2054:2101  stakers[msg.sender].unclaimedRewards += rewards */\n      tag_65\n      jump\t// in\n    tag_64:\n      swap1\n      swap2\n      sstore\n      pop\n        /* \"NftStaking.sol\":2112:2125  uint256 index */\n      0x00\n      swap1\n      pop\n      dup1\n        /* \"NftStaking.sol\":2139:2358  for (uint256 i = 0; i < stakers[msg.sender].stakedTokens.length; i++) {... */\n    tag_66:\n        /* \"NftStaking.sol\":2171:2181  msg.sender */\n      caller\n        /* \"NftStaking.sol\":2163:2182  stakers[msg.sender] */\n      0x00\n      swap1\n      dup2\n      mstore\n        /* \"NftStaking.sol\":2163:2170  stakers */\n      0x02\n        /* \"NftStaking.sol\":2163:2182  stakers[msg.sender] */\n      0x20\n      mstore\n      0x40\n      swap1\n      keccak256\n        /* \"NftStaking.sol\":2163:2195  stakers[msg.sender].stakedTokens */\n      0x01\n      add\n        /* \"NftStaking.sol\":2163:2202  stakers[msg.sender].stakedTokens.length */\n      sload\n        /* \"NftStaking.sol\":2159:2202  i < stakers[msg.sender].stakedTokens.length */\n      dup2\n      lt\n        /* \"NftStaking.sol\":2139:2358  for (uint256 i = 0; i < stakers[msg.sender].stakedTokens.length; i++) {... */\n      iszero\n      tag_67\n      jumpi\n        /* \"NftStaking.sol\":2234:2244  msg.sender */\n      caller\n        /* \"NftStaking.sol\":2226:2245  stakers[msg.sender] */\n      0x00\n      swap1\n      dup2\n      mstore\n        /* \"NftStaking.sol\":2226:2233  stakers */\n      0x02\n        /* \"NftStaking.sol\":2226:2245  stakers[msg.sender] */\n      0x20\n      mstore\n      0x40\n      swap1\n      keccak256\n        /* \"NftStaking.sol\":2226:2258  stakers[msg.sender].stakedTokens */\n      0x01\n      add\n        /* \"NftStaking.sol\":2226:2261  stakers[msg.sender].stakedTokens[i] */\n      dup1\n      sload\n        /* \"NftStaking.sol\":2273:2281  _tokenId */\n      dup6\n      swap2\n        /* \"NftStaking.sol\":2226:2258  stakers[msg.sender].stakedTokens */\n      swap1\n        /* \"NftStaking.sol\":2259:2260  i */\n      dup4\n      swap1\n        /* \"NftStaking.sol\":2226:2261  stakers[msg.sender].stakedTokens[i] */\n      dup2\n      lt\n      tag_70\n      jumpi\n      tag_70\n      tag_71\n      jump\t// in\n    tag_70:\n      swap1\n      0x00\n      mstore\n      keccak256(0x00, 0x20)\n      swap1\n      0x02\n      mul\n      add\n        /* \"NftStaking.sol\":2226:2269  stakers[msg.sender].stakedTokens[i].tokenId */\n      0x01\n      add\n      sload\n        /* \"NftStaking.sol\":2226:2281  stakers[msg.sender].stakedTokens[i].tokenId == _tokenId */\n      sub\n        /* \"NftStaking.sol\":2223:2348  if(stakers[msg.sender].stakedTokens[i].tokenId == _tokenId) {... */\n      tag_73\n      jumpi\n        /* \"NftStaking.sol\":2309:2310  i */\n      dup1\n        /* \"NftStaking.sol\":2301:2310  index = i */\n      swap2\n      pop\n        /* \"NftStaking.sol\":2328:2333  break */\n      jump(tag_67)\n        /* \"NftStaking.sol\":2223:2348  if(stakers[msg.sender].stakedTokens[i].tokenId == _tokenId) {... */\n    tag_73:\n        /* \"NftStaking.sol\":2204:2207  i++ */\n      dup1\n      tag_74\n      dup2\n      tag_75\n      jump\t// in\n    tag_74:\n      swap2\n      pop\n      pop\n        /* \"NftStaking.sol\":2139:2358  for (uint256 i = 0; i < stakers[msg.sender].stakedTokens.length; i++) {... */\n      jump(tag_66)\n    tag_67:\n      pop\n        /* \"NftStaking.sol\":2376:2386  msg.sender */\n      caller\n        /* \"NftStaking.sol\":2425:2426  0 */\n      0x00\n        /* \"NftStaking.sol\":2368:2387  stakers[msg.sender] */\n      swap1\n      dup2\n      mstore\n        /* \"NftStaking.sol\":2368:2375  stakers */\n      0x02\n        /* \"NftStaking.sol\":2368:2387  stakers[msg.sender] */\n      0x20\n      mstore\n      0x40\n      dup2\n      keccak256\n        /* \"NftStaking.sol\":2368:2400  stakers[msg.sender].stakedTokens */\n      0x01\n      add\n        /* \"NftStaking.sol\":2368:2407  stakers[msg.sender].stakedTokens[index] */\n      dup1\n      sload\n        /* \"NftStaking.sol\":2401:2406  index */\n      dup4\n      swap1\n        /* \"NftStaking.sol\":2368:2407  stakers[msg.sender].stakedTokens[index] */\n      dup2\n      lt\n      tag_77\n      jumpi\n      tag_77\n      tag_71\n      jump\t// in\n    tag_77:\n      0x00\n      swap2\n      dup3\n      mstore\n      0x20\n      dup1\n      dup4\n      keccak256\n      0x02\n      swap3\n      dup4\n      mul\n      add\n        /* \"NftStaking.sol\":2368:2427  stakers[msg.sender].stakedTokens[index].staker = address(0) */\n      dup1\n      sload\n      not(sub(shl(0xa0, 0x01), 0x01))\n      and\n      sub(shl(0xa0, 0x01), 0x01)\n      swap6\n      swap1\n      swap6\n      and\n      swap5\n      swap1\n      swap5\n      or\n      swap1\n      swap4\n      sstore\n        /* \"NftStaking.sol\":2445:2455  msg.sender */\n      caller\n        /* \"NftStaking.sol\":2437:2456  stakers[msg.sender] */\n      dup3\n      mstore\n      swap1\n      swap2\n      mstore\n      0x40\n      dup2\n      keccak256\n        /* \"NftStaking.sol\":2437:2471  stakers[msg.sender].amountStaked-- */\n      dup1\n      sload\n      swap2\n      tag_79\n      dup4\n      tag_80\n      jump\t// in\n    tag_79:\n      swap1\n      swap2\n      sstore\n      pop\n      pop\n        /* \"NftStaking.sol\":2514:2515  0 */\n      0x00\n        /* \"NftStaking.sol\":2481:2503  stakerAdress[_tokenId] */\n      dup4\n      dup2\n      mstore\n        /* \"NftStaking.sol\":2481:2493  stakerAdress */\n      0x03\n        /* \"NftStaking.sol\":2481:2503  stakerAdress[_tokenId] */\n      0x20\n      mstore\n      0x40\n      swap1\n      dup2\n      swap1\n      keccak256\n        /* \"NftStaking.sol\":2481:2516  stakerAdress[_tokenId] = address(0) */\n      dup1\n      sload\n      not(sub(shl(0xa0, 0x01), 0x01))\n      and\n      swap1\n      sstore\n        /* \"NftStaking.sol\":2535:2598  nftCollection.transferFrom(address(this), msg.sender, _tokenId) */\n      mload\n      shl(0xe0, 0x23b872dd)\n      dup2\n      mstore\n        /* \"NftStaking.sol\":2570:2574  this */\n      address\n        /* \"NftStaking.sol\":2535:2598  nftCollection.transferFrom(address(this), msg.sender, _tokenId) */\n      0x04\n      dup3\n      add\n        /* \"#utility.yul\":4330:4364   */\n      mstore\n        /* \"NftStaking.sol\":2577:2587  msg.sender */\n      caller\n        /* \"#utility.yul\":4380:4398   */\n      0x24\n      dup3\n      add\n        /* \"#utility.yul\":4373:4416   */\n      mstore\n        /* \"#utility.yul\":4432:4450   */\n      0x44\n      dup2\n      add\n        /* \"#utility.yul\":4425:4459   */\n      dup5\n      swap1\n      mstore\n      sub(shl(0xa0, 0x01), 0x01)\n        /* \"NftStaking.sol\":2535:2548  nftCollection */\n      immutable(\"0x8e8fab5f003314da8d1873ea7720e8d9f47650136d916064d1edb8a11d682624\")\n        /* \"NftStaking.sol\":2535:2561  nftCollection.transferFrom */\n      and\n      swap1\n      0x23b872dd\n      swap1\n        /* \"#utility.yul\":4242:4260   */\n      0x64\n      add\n        /* \"NftStaking.sol\":2535:2598  nftCollection.transferFrom(address(this), msg.sender, _tokenId) */\n      0x00\n      mload(0x40)\n      dup1\n      dup4\n      sub\n      dup2\n      0x00\n      dup8\n      dup1\n      extcodesize\n      iszero\n      dup1\n      iszero\n      tag_83\n      jumpi\n      0x00\n      dup1\n      revert\n    tag_83:\n      pop\n      gas\n      call\n      iszero\n      dup1\n      iszero\n      tag_85\n      jumpi\n      returndatasize\n      0x00\n      dup1\n      returndatacopy\n      revert(0x00, returndatasize)\n    tag_85:\n      pop\n      pop\n        /* \"NftStaking.sol\":2616:2626  msg.sender */\n      caller\n        /* \"NftStaking.sol\":2608:2627  stakers[msg.sender] */\n      0x00\n      swap1\n      dup2\n      mstore\n        /* \"NftStaking.sol\":2608:2615  stakers */\n      0x02\n        /* \"NftStaking.sol\":2608:2627  stakers[msg.sender] */\n      0x20\n      dup2\n      swap1\n      mstore\n      0x40\n      swap1\n      swap2\n      keccak256\n        /* \"NftStaking.sol\":2647:2662  block.timestamp */\n      timestamp\n        /* \"NftStaking.sol\":2608:2644  stakers[msg.sender].timeOfLastUpdate */\n      swap2\n      add\n        /* \"NftStaking.sol\":2608:2662  stakers[msg.sender].timeOfLastUpdate = block.timestamp */\n      sstore\n      pop\n        /* \"@openzeppelin/contracts/security/ReentrancyGuard.sol\":2303:2323   */\n      tag_86\n      swap3\n      pop\n        /* \"@openzeppelin/contracts/security/ReentrancyGuard.sol\":2303:2321   */\n      tag_87\n      swap2\n      pop\n      pop\n        /* \"@openzeppelin/contracts/security/ReentrancyGuard.sol\":2303:2323   */\n      jump\t// in\n    tag_86:\n        /* \"NftStaking.sol\":1762:2669  function withdraw(uint256 _tokenId) external nonReentrant {... */\n      pop\n      jump\t// out\n        /* \"NftStaking.sol\":2675:3045  function claimRewards() external {... */\n    tag_19:\n        /* \"NftStaking.sol\":2775:2785  msg.sender */\n      caller\n        /* \"NftStaking.sol\":2718:2733  uint256 rewards */\n      0x00\n        /* \"NftStaking.sol\":2767:2786  stakers[msg.sender] */\n      dup2\n      dup2\n      mstore\n        /* \"NftStaking.sol\":2767:2774  stakers */\n      0x02\n        /* \"NftStaking.sol\":2767:2786  stakers[msg.sender] */\n      0x20\n      mstore\n      0x40\n      dup2\n      keccak256\n        /* \"NftStaking.sol\":2767:2803  stakers[msg.sender].unclaimedRewards */\n      0x03\n      add\n      sload\n        /* \"NftStaking.sol\":2718:2733  uint256 rewards */\n      swap1\n      swap2\n        /* \"NftStaking.sol\":2736:2764  calculateRewards(msg.sender) */\n      tag_89\n      swap1\n        /* \"NftStaking.sol\":2736:2752  calculateRewards */\n      tag_63\n        /* \"NftStaking.sol\":2736:2764  calculateRewards(msg.sender) */\n      jump\t// in\n    tag_89:\n        /* \"NftStaking.sol\":2736:2803  calculateRewards(msg.sender) + stakers[msg.sender].unclaimedRewards */\n      tag_90\n      swap2\n      swap1\n      tag_65\n      jump\t// in\n    tag_90:\n        /* \"NftStaking.sol\":2718:2803  uint256 rewards = calculateRewards(msg.sender) + stakers[msg.sender].unclaimedRewards */\n      swap1\n      pop\n        /* \"NftStaking.sol\":2832:2833  0 */\n      0x00\n        /* \"NftStaking.sol\":2822:2829  rewards */\n      dup2\n        /* \"NftStaking.sol\":2822:2833  rewards > 0 */\n      gt\n        /* \"NftStaking.sol\":2814:2866  require(rewards > 0, \"you have no rewards to claim\") */\n      tag_91\n      jumpi\n      mload(0x40)\n      shl(0xe5, 0x461bcd)\n      dup2\n      mstore\n        /* \"#utility.yul\":4672:4674   */\n      0x20\n        /* \"NftStaking.sol\":2814:2866  require(rewards > 0, \"you have no rewards to claim\") */\n      0x04\n      dup3\n      add\n        /* \"#utility.yul\":4654:4675   */\n      mstore\n        /* \"#utility.yul\":4711:4713   */\n      0x1c\n        /* \"#utility.yul\":4691:4709   */\n      0x24\n      dup3\n      add\n        /* \"#utility.yul\":4684:4714   */\n      mstore\n        /* \"#utility.yul\":4750:4780   */\n      0x796f752068617665206e6f207265776172647320746f20636c61696d00000000\n        /* \"#utility.yul\":4730:4748   */\n      0x44\n      dup3\n      add\n        /* \"#utility.yul\":4723:4781   */\n      mstore\n        /* \"#utility.yul\":4798:4816   */\n      0x64\n      add\n        /* \"NftStaking.sol\":2814:2866  require(rewards > 0, \"you have no rewards to claim\") */\n      tag_57\n        /* \"#utility.yul\":4470:4822   */\n      jump\n        /* \"NftStaking.sol\":2814:2866  require(rewards > 0, \"you have no rewards to claim\") */\n    tag_91:\n        /* \"NftStaking.sol\":2885:2895  msg.sender */\n      caller\n        /* \"NftStaking.sol\":2877:2896  stakers[msg.sender] */\n      0x00\n      dup2\n      dup2\n      mstore\n        /* \"NftStaking.sol\":2877:2884  stakers */\n      0x02\n        /* \"NftStaking.sol\":2877:2896  stakers[msg.sender] */\n      0x20\n      dup2\n      swap1\n      mstore\n      0x40\n      dup3\n      keccak256\n        /* \"NftStaking.sol\":2916:2931  block.timestamp */\n      timestamp\n        /* \"NftStaking.sol\":2877:2913  stakers[msg.sender].timeOfLastUpdate */\n      swap2\n      dup2\n      add\n        /* \"NftStaking.sol\":2877:2931  stakers[msg.sender].timeOfLastUpdate = block.timestamp */\n      swap2\n      swap1\n      swap2\n      sstore\n        /* \"NftStaking.sol\":2941:2977  stakers[msg.sender].unclaimedRewards */\n      0x03\n      add\n        /* \"NftStaking.sol\":2941:2981  stakers[msg.sender].unclaimedRewards = 0 */\n      sstore\n        /* \"NftStaking.sol\":2992:3038  rewardsToken.safeTransfer(msg.sender, rewards) */\n      tag_86\n      swap1\n        /* \"NftStaking.sol\":2992:3004  rewardsToken */\n      immutable(\"0x5c4c6aa067b6f8e6cb38e6ab843832a94d1712d661a04d73c517d6a1931a9e5d\")\n      sub(shl(0xa0, 0x01), 0x01)\n        /* \"NftStaking.sol\":2992:3017  rewardsToken.safeTransfer */\n      and\n      swap1\n        /* \"NftStaking.sol\":3030:3037  rewards */\n      dup4\n        /* \"NftStaking.sol\":2992:3017  rewardsToken.safeTransfer */\n      tag_95\n        /* \"NftStaking.sol\":2992:3038  rewardsToken.safeTransfer(msg.sender, rewards) */\n      jump\t// in\n        /* \"NftStaking.sol\":3537:4212  function getStakedTokens(address _user) public view returns (StakedToken[] memory) {... */\n    tag_23:\n      sub(shl(0xa0, 0x01), 0x01)\n        /* \"NftStaking.sol\":3633:3647  stakers[_user] */\n      dup2\n      and\n        /* \"NftStaking.sol\":3663:3664  0 */\n      0x00\n        /* \"NftStaking.sol\":3633:3647  stakers[_user] */\n      swap1\n      dup2\n      mstore\n        /* \"NftStaking.sol\":3633:3640  stakers */\n      0x02\n        /* \"NftStaking.sol\":3633:3647  stakers[_user] */\n      0x20\n      mstore\n      0x40\n      swap1\n      keccak256\n        /* \"NftStaking.sol\":3633:3660  stakers[_user].amountStaked */\n      sload\n        /* \"NftStaking.sol\":3598:3618  StakedToken[] memory */\n      0x60\n      swap1\n        /* \"NftStaking.sol\":3633:3664  stakers[_user].amountStaked > 0 */\n      iszero\n        /* \"NftStaking.sol\":3630:4206  if(stakers[_user].amountStaked > 0) {... */\n      tag_97\n      jumpi\n      sub(shl(0xa0, 0x01), 0x01)\n        /* \"NftStaking.sol\":3735:3749  stakers[_user] */\n      dup3\n      and\n        /* \"NftStaking.sol\":3680:3714  StakedToken[] memory _stakedTokens */\n      0x00\n        /* \"NftStaking.sol\":3735:3749  stakers[_user] */\n      swap1\n      dup2\n      mstore\n        /* \"NftStaking.sol\":3735:3742  stakers */\n      0x02\n        /* \"NftStaking.sol\":3735:3749  stakers[_user] */\n      0x20\n      mstore\n      0x40\n      dup2\n      keccak256\n        /* \"NftStaking.sol\":3735:3762  stakers[_user].amountStaked */\n      sload\n        /* \"NftStaking.sol\":3717:3763  new StakedToken[](stakers[_user].amountStaked) */\n      0xffffffffffffffff\n      dup2\n      gt\n      iszero\n      tag_99\n      jumpi\n      tag_99\n      tag_100\n      jump\t// in\n    tag_99:\n      mload(0x40)\n      swap1\n      dup1\n      dup3\n      mstore\n      dup1\n      0x20\n      mul\n      0x20\n      add\n      dup3\n      add\n      0x40\n      mstore\n      dup1\n      iszero\n      tag_101\n      jumpi\n      dup2\n      0x20\n      add\n    tag_102:\n      0x40\n      dup1\n      mload\n      dup1\n      dup3\n      add\n      swap1\n      swap2\n      mstore\n      0x00\n      dup1\n      dup3\n      mstore\n      0x20\n      dup3\n      add\n      mstore\n      dup2\n      mstore\n      0x20\n      add\n      swap1\n      0x01\n      swap1\n      sub\n      swap1\n      dup2\n      tag_102\n      jumpi\n      swap1\n      pop\n    tag_101:\n      pop\n        /* \"NftStaking.sol\":3680:3763  StakedToken[] memory _stakedTokens = new StakedToken[](stakers[_user].amountStaked) */\n      swap1\n      pop\n        /* \"NftStaking.sol\":3790:3804  uint256 _index */\n      0x00\n        /* \"NftStaking.sol\":3827:3836  uint256 j */\n      dup1\n        /* \"NftStaking.sol\":3822:4103  for (uint256 j = 0; j < stakers[_user].stakedTokens.length; j++) {... */\n    tag_105:\n      sub(shl(0xa0, 0x01), 0x01)\n        /* \"NftStaking.sol\":3846:3860  stakers[_user] */\n      dup6\n      and\n      0x00\n      swap1\n      dup2\n      mstore\n        /* \"NftStaking.sol\":3846:3853  stakers */\n      0x02\n        /* \"NftStaking.sol\":3846:3860  stakers[_user] */\n      0x20\n      mstore\n      0x40\n      swap1\n      keccak256\n        /* \"NftStaking.sol\":3846:3873  stakers[_user].stakedTokens */\n      0x01\n      add\n        /* \"NftStaking.sol\":3846:3880  stakers[_user].stakedTokens.length */\n      sload\n        /* \"NftStaking.sol\":3842:3880  j < stakers[_user].stakedTokens.length */\n      dup2\n      lt\n        /* \"NftStaking.sol\":3822:4103  for (uint256 j = 0; j < stakers[_user].stakedTokens.length; j++) {... */\n      iszero\n      tag_106\n      jumpi\n      sub(shl(0xa0, 0x01), 0x01)\n        /* \"NftStaking.sol\":3909:3923  stakers[_user] */\n      dup6\n      and\n        /* \"NftStaking.sol\":3959:3960  0 */\n      0x00\n        /* \"NftStaking.sol\":3909:3923  stakers[_user] */\n      swap1\n      dup2\n      mstore\n        /* \"NftStaking.sol\":3909:3916  stakers */\n      0x02\n        /* \"NftStaking.sol\":3909:3923  stakers[_user] */\n      0x20\n      mstore\n      0x40\n      dup2\n      keccak256\n        /* \"NftStaking.sol\":3909:3936  stakers[_user].stakedTokens */\n      0x01\n      add\n        /* \"NftStaking.sol\":3909:3939  stakers[_user].stakedTokens[j] */\n      dup1\n      sload\n        /* \"NftStaking.sol\":3937:3938  j */\n      dup4\n      swap1\n        /* \"NftStaking.sol\":3909:3939  stakers[_user].stakedTokens[j] */\n      dup2\n      lt\n      tag_109\n      jumpi\n      tag_109\n      tag_71\n      jump\t// in\n    tag_109:\n      0x00\n      swap2\n      dup3\n      mstore\n      0x20\n      swap1\n      swap2\n      keccak256\n      0x02\n      swap1\n      swap2\n      mul\n      add\n        /* \"NftStaking.sol\":3909:3946  stakers[_user].stakedTokens[j].staker */\n      sload\n      sub(shl(0xa0, 0x01), 0x01)\n      and\n        /* \"NftStaking.sol\":3909:3962  stakers[_user].stakedTokens[j].staker != (address(0)) */\n      eq\n        /* \"NftStaking.sol\":3905:4089  if (stakers[_user].stakedTokens[j].staker != (address(0))) {... */\n      tag_111\n      jumpi\n      sub(shl(0xa0, 0x01), 0x01)\n        /* \"NftStaking.sol\":4010:4024  stakers[_user] */\n      dup6\n      and\n      0x00\n      swap1\n      dup2\n      mstore\n        /* \"NftStaking.sol\":4010:4017  stakers */\n      0x02\n        /* \"NftStaking.sol\":4010:4024  stakers[_user] */\n      0x20\n      mstore\n      0x40\n      swap1\n      keccak256\n        /* \"NftStaking.sol\":4010:4037  stakers[_user].stakedTokens */\n      0x01\n      add\n        /* \"NftStaking.sol\":4010:4040  stakers[_user].stakedTokens[j] */\n      dup1\n      sload\n        /* \"NftStaking.sol\":4038:4039  j */\n      dup3\n      swap1\n        /* \"NftStaking.sol\":4010:4040  stakers[_user].stakedTokens[j] */\n      dup2\n      lt\n      tag_113\n      jumpi\n      tag_113\n      tag_71\n      jump\t// in\n    tag_113:\n      0x00\n      swap2\n      dup3\n      mstore\n      0x20\n      swap2\n      dup3\n      swap1\n      keccak256\n        /* \"NftStaking.sol\":3986:4040  _stakedTokens[_index] = stakers[_user].stakedTokens[j] */\n      0x40\n      dup1\n      mload\n      dup1\n      dup3\n      add\n      swap1\n      swap2\n      mstore\n        /* \"NftStaking.sol\":4010:4040  stakers[_user].stakedTokens[j] */\n      0x02\n      swap1\n      swap3\n      mul\n      add\n        /* \"NftStaking.sol\":3986:4040  _stakedTokens[_index] = stakers[_user].stakedTokens[j] */\n      dup1\n      sload\n      sub(shl(0xa0, 0x01), 0x01)\n      and\n      dup3\n      mstore\n      0x01\n      add\n      sload\n      swap2\n      dup2\n      add\n      swap2\n      swap1\n      swap2\n      mstore\n        /* \"NftStaking.sol\":3986:4007  _stakedTokens[_index] */\n      dup4\n      mload\n        /* \"NftStaking.sol\":3986:3999  _stakedTokens */\n      dup5\n      swap1\n        /* \"NftStaking.sol\":4000:4006  _index */\n      dup5\n      swap1\n        /* \"NftStaking.sol\":3986:4007  _stakedTokens[_index] */\n      dup2\n      lt\n      tag_116\n      jumpi\n      tag_116\n      tag_71\n      jump\t// in\n    tag_116:\n      0x20\n      mul\n      0x20\n      add\n      add\n        /* \"NftStaking.sol\":3986:4040  _stakedTokens[_index] = stakers[_user].stakedTokens[j] */\n      dup2\n      swap1\n      mstore\n      pop\n        /* \"NftStaking.sol\":4062:4070  _index++ */\n      dup2\n      dup1\n      tag_117\n      swap1\n      tag_75\n      jump\t// in\n    tag_117:\n      swap3\n      pop\n      pop\n        /* \"NftStaking.sol\":3905:4089  if (stakers[_user].stakedTokens[j].staker != (address(0))) {... */\n    tag_111:\n        /* \"NftStaking.sol\":3882:3885  j++ */\n      dup1\n      tag_118\n      dup2\n      tag_75\n      jump\t// in\n    tag_118:\n      swap2\n      pop\n      pop\n        /* \"NftStaking.sol\":3822:4103  for (uint256 j = 0; j < stakers[_user].stakedTokens.length; j++) {... */\n      jump(tag_105)\n    tag_106:\n      pop\n        /* \"NftStaking.sol\":4124:4137  _stakedTokens */\n      swap1\n      swap4\n        /* \"NftStaking.sol\":3537:4212  function getStakedTokens(address _user) public view returns (StakedToken[] memory) {... */\n      swap3\n      pop\n      pop\n      pop\n      jump\t// out\n        /* \"NftStaking.sol\":3630:4206  if(stakers[_user].amountStaked > 0) {... */\n    tag_97:\n        /* \"NftStaking.sol\":4179:4199  new StakedToken[](0) */\n      0x40\n      dup1\n      mload\n        /* \"NftStaking.sol\":4197:4198  0 */\n      0x00\n        /* \"NftStaking.sol\":4179:4199  new StakedToken[](0) */\n      dup1\n      dup3\n      mstore\n      0x20\n      dup3\n      add\n      swap1\n      swap3\n      mstore\n      swap1\n      jump(tag_122)\n    tag_123:\n      0x40\n      dup1\n      mload\n      dup1\n      dup3\n      add\n      swap1\n      swap2\n      mstore\n      0x00\n      dup1\n      dup3\n      mstore\n      0x20\n      dup3\n      add\n      mstore\n      dup2\n      mstore\n      0x20\n      add\n      swap1\n      0x01\n      swap1\n      sub\n      swap1\n      dup2\n      tag_123\n      jumpi\n      swap1\n      pop\n    tag_122:\n      pop\n        /* \"NftStaking.sol\":4172:4199  return new StakedToken[](0) */\n      swap3\n        /* \"NftStaking.sol\":3537:4212  function getStakedTokens(address _user) public view returns (StakedToken[] memory) {... */\n      swap2\n      pop\n      pop\n      jump\t// out\n        /* \"NftStaking.sol\":1057:1756  function stake(uint256 _tokenId) external nonReentrant {... */\n    tag_42:\n        /* \"@openzeppelin/contracts/security/ReentrancyGuard.sol\":2261:2282   */\n      tag_126\n        /* \"@openzeppelin/contracts/security/ReentrancyGuard.sol\":2261:2280   */\n      tag_54\n        /* \"@openzeppelin/contracts/security/ReentrancyGuard.sol\":2261:2282   */\n      jump\t// in\n    tag_126:\n        /* \"NftStaking.sol\":1133:1143  msg.sender */\n      caller\n        /* \"NftStaking.sol\":1160:1161  0 */\n      0x00\n        /* \"NftStaking.sol\":1125:1144  stakers[msg.sender] */\n      swap1\n      dup2\n      mstore\n        /* \"NftStaking.sol\":1125:1132  stakers */\n      0x02\n        /* \"NftStaking.sol\":1125:1144  stakers[msg.sender] */\n      0x20\n      mstore\n      0x40\n      swap1\n      keccak256\n        /* \"NftStaking.sol\":1125:1157  stakers[msg.sender].amountStaked */\n      sload\n        /* \"NftStaking.sol\":1125:1161  stakers[msg.sender].amountStaked > 0 */\n      iszero\n        /* \"NftStaking.sol\":1122:1294  if(stakers[msg.sender].amountStaked > 0){... */\n      tag_128\n      jumpi\n        /* \"NftStaking.sol\":1176:1191  uint256 rewards */\n      0x00\n        /* \"NftStaking.sol\":1194:1222  calculateRewards(msg.sender) */\n      tag_129\n        /* \"NftStaking.sol\":1211:1221  msg.sender */\n      caller\n        /* \"NftStaking.sol\":1194:1210  calculateRewards */\n      tag_63\n        /* \"NftStaking.sol\":1194:1222  calculateRewards(msg.sender) */\n      jump\t// in\n    tag_129:\n        /* \"NftStaking.sol\":1244:1254  msg.sender */\n      caller\n        /* \"NftStaking.sol\":1236:1255  stakers[msg.sender] */\n      0x00\n      swap1\n      dup2\n      mstore\n        /* \"NftStaking.sol\":1236:1243  stakers */\n      0x02\n        /* \"NftStaking.sol\":1236:1255  stakers[msg.sender] */\n      0x20\n      mstore\n      0x40\n      dup2\n      keccak256\n        /* \"NftStaking.sol\":1236:1272  stakers[msg.sender].unclaimedRewards */\n      0x03\n      add\n        /* \"NftStaking.sol\":1236:1283  stakers[msg.sender].unclaimedRewards += rewards */\n      dup1\n      sload\n        /* \"NftStaking.sol\":1176:1222  uint256 rewards = calculateRewards(msg.sender) */\n      swap3\n      swap4\n      pop\n      dup4\n      swap3\n        /* \"NftStaking.sol\":1236:1272  stakers[msg.sender].unclaimedRewards */\n      swap1\n      swap2\n        /* \"NftStaking.sol\":1236:1255  stakers[msg.sender] */\n      swap1\n        /* \"NftStaking.sol\":1236:1283  stakers[msg.sender].unclaimedRewards += rewards */\n      tag_130\n      swap1\n        /* \"NftStaking.sol\":1176:1222  uint256 rewards = calculateRewards(msg.sender) */\n      dup5\n      swap1\n        /* \"NftStaking.sol\":1236:1283  stakers[msg.sender].unclaimedRewards += rewards */\n      tag_65\n      jump\t// in\n    tag_130:\n      swap1\n      swap2\n      sstore\n      pop\n      pop\n      pop\n        /* \"NftStaking.sol\":1122:1294  if(stakers[msg.sender].amountStaked > 0){... */\n    tag_128:\n        /* \"NftStaking.sol\":1312:1343  nftCollection.ownerOf(_tokenId) */\n      mload(0x40)\n      shl(0xe1, 0x31a9108f)\n      dup2\n      mstore\n      0x04\n      dup2\n      add\n        /* \"#utility.yul\":2649:2674   */\n      dup3\n      swap1\n      mstore\n        /* \"NftStaking.sol\":1347:1357  msg.sender */\n      caller\n      swap1\n      sub(shl(0xa0, 0x01), 0x01)\n        /* \"NftStaking.sol\":1312:1325  nftCollection */\n      immutable(\"0x8e8fab5f003314da8d1873ea7720e8d9f47650136d916064d1edb8a11d682624\")\n        /* \"NftStaking.sol\":1312:1333  nftCollection.ownerOf */\n      and\n      swap1\n      0x6352211e\n      swap1\n        /* \"#utility.yul\":2622:2640   */\n      0x24\n      add\n        /* \"NftStaking.sol\":1312:1343  nftCollection.ownerOf(_tokenId) */\n      0x20\n      mload(0x40)\n      dup1\n      dup4\n      sub\n      dup2\n      dup7\n      gas\n      staticcall\n      iszero\n      dup1\n      iszero\n      tag_133\n      jumpi\n      returndatasize\n      0x00\n      dup1\n      returndatacopy\n      revert(0x00, returndatasize)\n    tag_133:\n      pop\n      pop\n      pop\n      pop\n      mload(0x40)\n      returndatasize\n      not(0x1f)\n      0x1f\n      dup3\n      add\n      and\n      dup3\n      add\n      dup1\n      0x40\n      mstore\n      pop\n      dup2\n      add\n      swap1\n      tag_134\n      swap2\n      swap1\n      tag_135\n      jump\t// in\n    tag_134:\n      sub(shl(0xa0, 0x01), 0x01)\n        /* \"NftStaking.sol\":1312:1357  nftCollection.ownerOf(_tokenId) == msg.sender */\n      and\n      eq\n        /* \"NftStaking.sol\":1304:1386  require(nftCollection.ownerOf(_tokenId) == msg.sender, \"You don't own this token\") */\n      tag_136\n      jumpi\n      mload(0x40)\n      shl(0xe5, 0x461bcd)\n      dup2\n      mstore\n        /* \"#utility.yul\":3241:3243   */\n      0x20\n        /* \"NftStaking.sol\":1304:1386  require(nftCollection.ownerOf(_tokenId) == msg.sender, \"You don't own this token\") */\n      0x04\n      dup3\n      add\n        /* \"#utility.yul\":3223:3244   */\n      mstore\n        /* \"#utility.yul\":3280:3282   */\n      0x18\n        /* \"#utility.yul\":3260:3278   */\n      0x24\n      dup3\n      add\n        /* \"#utility.yul\":3253:3283   */\n      mstore\n        /* \"#utility.yul\":3319:3345   */\n      0x596f7520646f6e2774206f776e207468697320746f6b656e0000000000000000\n        /* \"#utility.yul\":3299:3317   */\n      0x44\n      dup3\n      add\n        /* \"#utility.yul\":3292:3346   */\n      mstore\n        /* \"#utility.yul\":3363:3381   */\n      0x64\n      add\n        /* \"NftStaking.sol\":1304:1386  require(nftCollection.ownerOf(_tokenId) == msg.sender, \"You don't own this token\") */\n      tag_57\n        /* \"#utility.yul\":3039:3387   */\n      jump\n        /* \"NftStaking.sol\":1304:1386  require(nftCollection.ownerOf(_tokenId) == msg.sender, \"You don't own this token\") */\n    tag_136:\n        /* \"NftStaking.sol\":1397:1459  nftCollection.transferFrom(msg.sender,address(this), _tokenId) */\n      mload(0x40)\n      shl(0xe0, 0x23b872dd)\n      dup2\n      mstore\n        /* \"NftStaking.sol\":1424:1434  msg.sender */\n      caller\n        /* \"NftStaking.sol\":1397:1459  nftCollection.transferFrom(msg.sender,address(this), _tokenId) */\n      0x04\n      dup3\n      add\n        /* \"#utility.yul\":4330:4364   */\n      mstore\n        /* \"NftStaking.sol\":1443:1447  this */\n      address\n        /* \"#utility.yul\":4380:4398   */\n      0x24\n      dup3\n      add\n        /* \"#utility.yul\":4373:4416   */\n      mstore\n        /* \"#utility.yul\":4432:4450   */\n      0x44\n      dup2\n      add\n        /* \"#utility.yul\":4425:4459   */\n      dup3\n      swap1\n      mstore\n        /* \"NftStaking.sol\":1397:1410  nftCollection */\n      immutable(\"0x8e8fab5f003314da8d1873ea7720e8d9f47650136d916064d1edb8a11d682624\")\n      sub(shl(0xa0, 0x01), 0x01)\n        /* \"NftStaking.sol\":1397:1423  nftCollection.transferFrom */\n      and\n      swap1\n      0x23b872dd\n      swap1\n        /* \"#utility.yul\":4242:4260   */\n      0x64\n      add\n        /* \"NftStaking.sol\":1397:1459  nftCollection.transferFrom(msg.sender,address(this), _tokenId) */\n      0x00\n      mload(0x40)\n      dup1\n      dup4\n      sub\n      dup2\n      0x00\n      dup8\n      dup1\n      extcodesize\n      iszero\n      dup1\n      iszero\n      tag_139\n      jumpi\n      0x00\n      dup1\n      revert\n    tag_139:\n      pop\n      gas\n      call\n      iszero\n      dup1\n      iszero\n      tag_141\n      jumpi\n      returndatasize\n      0x00\n      dup1\n      returndatacopy\n      revert(0x00, returndatasize)\n    tag_141:\n      pop\n      pop\n        /* \"NftStaking.sol\":1502:1535  StakedToken(msg.sender, _tokenId) */\n      0x40\n      dup1\n      mload\n      dup1\n      dup3\n      add\n      dup3\n      mstore\n        /* \"NftStaking.sol\":1514:1524  msg.sender */\n      caller\n        /* \"NftStaking.sol\":1502:1535  StakedToken(msg.sender, _tokenId) */\n      dup1\n      dup3\n      mstore\n      0x20\n      dup1\n      dup4\n      add\n      dup8\n      dup2\n      mstore\n      0x00\n        /* \"NftStaking.sol\":1545:1564  stakers[msg.sender] */\n      dup4\n      dup2\n      mstore\n        /* \"NftStaking.sol\":1545:1552  stakers */\n      0x02\n        /* \"NftStaking.sol\":1545:1564  stakers[msg.sender] */\n      dup1\n      dup5\n      mstore\n      swap6\n      dup2\n      keccak256\n        /* \"NftStaking.sol\":1545:1577  stakers[msg.sender].stakedTokens */\n      0x01\n      dup1\n      dup3\n      add\n        /* \"NftStaking.sol\":1545:1595  stakers[msg.sender].stakedTokens.push(stakedToken) */\n      dup1\n      sload\n      dup1\n      dup4\n      add\n      dup3\n      sstore\n      swap1\n      dup5\n      mstore\n      swap5\n      dup4\n      keccak256\n      dup8\n      mload\n      swap6\n      swap1\n      swap9\n      mul\n      swap1\n      swap8\n      add\n      dup1\n      sload\n      not(sub(shl(0xa0, 0x01), 0x01))\n      and\n      sub(shl(0xa0, 0x01), 0x01)\n      swap1\n      swap6\n      and\n      swap5\n      swap1\n      swap5\n      or\n      dup5\n      sstore\n      swap2\n      mload\n      swap3\n      swap1\n      swap6\n      add\n      swap2\n      swap1\n      swap2\n      sstore\n        /* \"NftStaking.sol\":1605:1624  stakers[msg.sender] */\n      swap1\n      dup4\n      mstore\n        /* \"NftStaking.sol\":1605:1639  stakers[msg.sender].amountStaked++ */\n      dup1\n      sload\n        /* \"NftStaking.sol\":1502:1535  StakedToken(msg.sender, _tokenId) */\n      swap2\n      swap5\n      pop\n        /* \"NftStaking.sol\":1605:1639  stakers[msg.sender].amountStaked++ */\n      swap1\n      swap3\n      pop\n        /* \"NftStaking.sol\":1545:1564  stakers[msg.sender] */\n      swap1\n        /* \"NftStaking.sol\":1605:1639  stakers[msg.sender].amountStaked++ */\n      tag_143\n      dup4\n      tag_75\n      jump\t// in\n    tag_143:\n      swap1\n      swap2\n      sstore\n      pop\n      pop\n      pop\n        /* \"NftStaking.sol\":1649:1671  stakerAdress[_tokenId] */\n      0x00\n      dup2\n      dup2\n      mstore\n        /* \"NftStaking.sol\":1649:1661  stakerAdress */\n      0x03\n        /* \"NftStaking.sol\":1649:1671  stakerAdress[_tokenId] */\n      0x20\n      swap1\n      dup2\n      mstore\n      0x40\n      dup1\n      dup4\n      keccak256\n        /* \"NftStaking.sol\":1649:1684  stakerAdress[_tokenId] = msg.sender */\n      dup1\n      sload\n      not(sub(shl(0xa0, 0x01), 0x01))\n      and\n        /* \"NftStaking.sol\":1674:1684  msg.sender */\n      caller\n        /* \"NftStaking.sol\":1649:1684  stakerAdress[_tokenId] = msg.sender */\n      swap1\n      dup2\n      or\n      swap1\n      swap2\n      sstore\n        /* \"NftStaking.sol\":1694:1713  stakers[msg.sender] */\n      dup4\n      mstore\n        /* \"NftStaking.sol\":1694:1701  stakers */\n      0x02\n        /* \"NftStaking.sol\":1694:1713  stakers[msg.sender] */\n      swap2\n      dup3\n      swap1\n      mstore\n      swap1\n      swap2\n      keccak256\n        /* \"NftStaking.sol\":1733:1748  block.timestamp */\n      timestamp\n        /* \"NftStaking.sol\":1694:1730  stakers[msg.sender].timeOfLastUpdate */\n      swap2\n      add\n        /* \"NftStaking.sol\":1694:1748  stakers[msg.sender].timeOfLastUpdate = block.timestamp */\n      sstore\n        /* \"@openzeppelin/contracts/security/ReentrancyGuard.sol\":2303:2323   */\n      tag_86\n        /* \"@openzeppelin/contracts/security/ReentrancyGuard.sol\":1716:1717   */\n      0x01\n        /* \"@openzeppelin/contracts/security/ReentrancyGuard.sol\":2809:2816   */\n      0x00\n        /* \"@openzeppelin/contracts/security/ReentrancyGuard.sol\":2809:2831   */\n      sstore\n        /* \"@openzeppelin/contracts/security/ReentrancyGuard.sol\":2629:2838   */\n      jump\n        /* \"NftStaking.sol\":3324:3531  function availableRewards(address _staker) public view returns (uint256) {... */\n    tag_49:\n      sub(shl(0xa0, 0x01), 0x01)\n        /* \"NftStaking.sol\":3465:3481  stakers[_staker] */\n      dup2\n      and\n        /* \"NftStaking.sol\":3388:3395  uint256 */\n      0x00\n        /* \"NftStaking.sol\":3465:3481  stakers[_staker] */\n      swap1\n      dup2\n      mstore\n        /* \"NftStaking.sol\":3465:3472  stakers */\n      0x02\n        /* \"NftStaking.sol\":3465:3481  stakers[_staker] */\n      0x20\n      mstore\n      0x40\n      dup2\n      keccak256\n        /* \"NftStaking.sol\":3465:3498  stakers[_staker].unclaimedRewards */\n      0x03\n      add\n      sload\n        /* \"NftStaking.sol\":3388:3395  uint256 */\n      dup2\n      swap1\n        /* \"NftStaking.sol\":3425:3450  calculateRewards(_staker) */\n      tag_146\n        /* \"NftStaking.sol\":3473:3480  _staker */\n      dup5\n        /* \"NftStaking.sol\":3425:3441  calculateRewards */\n      tag_63\n        /* \"NftStaking.sol\":3425:3450  calculateRewards(_staker) */\n      jump\t// in\n    tag_146:\n        /* \"NftStaking.sol\":3425:3498  calculateRewards(_staker) +... */\n      tag_147\n      swap2\n      swap1\n      tag_65\n      jump\t// in\n    tag_147:\n        /* \"NftStaking.sol\":3407:3498  uint256 rewards = calculateRewards(_staker) +... */\n      swap4\n        /* \"NftStaking.sol\":3324:3531  function availableRewards(address _staker) public view returns (uint256) {... */\n      swap3\n      pop\n      pop\n      pop\n      jump\t// out\n        /* \"@openzeppelin/contracts/security/ReentrancyGuard.sol\":2336:2623   */\n    tag_54:\n        /* \"@openzeppelin/contracts/security/ReentrancyGuard.sol\":1759:1760   */\n      0x02\n        /* \"@openzeppelin/contracts/security/ReentrancyGuard.sol\":2468:2475   */\n      sload(0x00)\n        /* \"@openzeppelin/contracts/security/ReentrancyGuard.sol\":2468:2487   */\n      sub\n        /* \"@openzeppelin/contracts/security/ReentrancyGuard.sol\":2460:2523   */\n      tag_149\n      jumpi\n      mload(0x40)\n      shl(0xe5, 0x461bcd)\n      dup2\n      mstore\n        /* \"#utility.yul\":5417:5419   */\n      0x20\n        /* \"@openzeppelin/contracts/security/ReentrancyGuard.sol\":2460:2523   */\n      0x04\n      dup3\n      add\n        /* \"#utility.yul\":5399:5420   */\n      mstore\n        /* \"#utility.yul\":5456:5458   */\n      0x1f\n        /* \"#utility.yul\":5436:5454   */\n      0x24\n      dup3\n      add\n        /* \"#utility.yul\":5429:5459   */\n      mstore\n        /* \"#utility.yul\":5495:5528   */\n      0x5265656e7472616e637947756172643a207265656e7472616e742063616c6c00\n        /* \"#utility.yul\":5475:5493   */\n      0x44\n      dup3\n      add\n        /* \"#utility.yul\":5468:5529   */\n      mstore\n        /* \"#utility.yul\":5546:5564   */\n      0x64\n      add\n        /* \"@openzeppelin/contracts/security/ReentrancyGuard.sol\":2460:2523   */\n      tag_57\n        /* \"#utility.yul\":5215:5570   */\n      jump\n        /* \"@openzeppelin/contracts/security/ReentrancyGuard.sol\":2460:2523   */\n    tag_149:\n        /* \"@openzeppelin/contracts/security/ReentrancyGuard.sol\":1759:1760   */\n      0x02\n        /* \"@openzeppelin/contracts/security/ReentrancyGuard.sol\":2598:2605   */\n      0x00\n        /* \"@openzeppelin/contracts/security/ReentrancyGuard.sol\":2598:2616   */\n      sstore\n        /* \"@openzeppelin/contracts/security/ReentrancyGuard.sol\":2336:2623   */\n      jump\t// out\n        /* \"NftStaking.sol\":3051:3318  function calculateRewards(address _staker) internal view returns (uint256 _rewards) {... */\n    tag_63:\n        /* \"NftStaking.sol\":3288:3302  rewardsPerHour */\n      sload(0x01)\n      sub(shl(0xa0, 0x01), 0x01)\n        /* \"NftStaking.sol\":3241:3257  stakers[_staker] */\n      dup3\n      and\n        /* \"NftStaking.sol\":3117:3133  uint256 _rewards */\n      0x00\n        /* \"NftStaking.sol\":3241:3257  stakers[_staker] */\n      swap1\n      dup2\n      mstore\n        /* \"NftStaking.sol\":3241:3248  stakers */\n      0x02\n        /* \"NftStaking.sol\":3241:3257  stakers[_staker] */\n      0x20\n      dup2\n      swap1\n      mstore\n      0x40\n      dup3\n      keccak256\n        /* \"NftStaking.sol\":3241:3270  stakers[_staker].amountStaked */\n      dup1\n      sload\n        /* \"NftStaking.sol\":3188:3221  stakers[_staker].timeOfLastUpdate */\n      swap2\n      add\n      sload\n        /* \"NftStaking.sol\":3117:3133  uint256 _rewards */\n      swap2\n      swap3\n        /* \"NftStaking.sol\":3306:3310  3600 */\n      0x0e10\n      swap3\n        /* \"NftStaking.sol\":3288:3302  rewardsPerHour */\n      swap1\n      swap2\n        /* \"NftStaking.sol\":3241:3270  stakers[_staker].amountStaked */\n      swap1\n        /* \"NftStaking.sol\":3170:3221  block.timestamp - stakers[_staker].timeOfLastUpdate */\n      tag_153\n      swap1\n        /* \"NftStaking.sol\":3170:3185  block.timestamp */\n      timestamp\n        /* \"NftStaking.sol\":3170:3221  block.timestamp - stakers[_staker].timeOfLastUpdate */\n      tag_154\n      jump\t// in\n    tag_153:\n        /* \"NftStaking.sol\":3169:3270  (block.timestamp - stakers[_staker].timeOfLastUpdate) *... */\n      tag_155\n      swap2\n      swap1\n      tag_156\n      jump\t// in\n    tag_155:\n        /* \"NftStaking.sol\":3154:3302  (... */\n      tag_157\n      swap2\n      swap1\n      tag_156\n      jump\t// in\n    tag_157:\n        /* \"NftStaking.sol\":3153:3310  ((... */\n      tag_158\n      swap2\n      swap1\n      tag_159\n      jump\t// in\n    tag_158:\n        /* \"NftStaking.sol\":3145:3311  return (((... */\n      swap3\n        /* \"NftStaking.sol\":3051:3318  function calculateRewards(address _staker) internal view returns (uint256 _rewards) {... */\n      swap2\n      pop\n      pop\n      jump\t// out\n        /* \"@openzeppelin/contracts/security/ReentrancyGuard.sol\":2629:2838   */\n    tag_87:\n        /* \"@openzeppelin/contracts/security/ReentrancyGuard.sol\":1716:1717   */\n      0x01\n        /* \"@openzeppelin/contracts/security/ReentrancyGuard.sol\":2809:2816   */\n      0x00\n        /* \"@openzeppelin/contracts/security/ReentrancyGuard.sol\":2809:2831   */\n      sstore\n        /* \"@openzeppelin/contracts/security/ReentrancyGuard.sol\":2629:2838   */\n      jump\t// out\n        /* \"@openzeppelin/contracts/token/ERC20/utils/SafeERC20.sol\":941:1116   */\n    tag_95:\n        /* \"@openzeppelin/contracts/token/ERC20/utils/SafeERC20.sol\":1050:1108   */\n      0x40\n      dup1\n      mload\n      sub(shl(0xa0, 0x01), 0x01)\n        /* \"#utility.yul\":6295:6350   */\n      dup5\n      and\n        /* \"@openzeppelin/contracts/token/ERC20/utils/SafeERC20.sol\":1050:1108   */\n      0x24\n      dup3\n      add\n        /* \"#utility.yul\":6277:6351   */\n      mstore\n        /* \"#utility.yul\":6367:6385   */\n      0x44\n      dup1\n      dup3\n      add\n        /* \"#utility.yul\":6360:6394   */\n      dup5\n      swap1\n      mstore\n        /* \"@openzeppelin/contracts/token/ERC20/utils/SafeERC20.sol\":1050:1108   */\n      dup3\n      mload\n      dup1\n      dup4\n      sub\n      swap1\n      swap2\n      add\n      dup2\n      mstore\n        /* \"#utility.yul\":6250:6268   */\n      0x64\n      swap1\n      swap2\n      add\n        /* \"@openzeppelin/contracts/token/ERC20/utils/SafeERC20.sol\":1050:1108   */\n      swap1\n      swap2\n      mstore\n      0x20\n      dup2\n      add\n      dup1\n      mload\n      0xffffffffffffffffffffffffffffffffffffffffffffffffffffffff\n      and\n      shl(0xe0, 0xa9059cbb)\n      or\n      swap1\n      mstore\n        /* \"@openzeppelin/contracts/token/ERC20/utils/SafeERC20.sol\":1023:1109   */\n      tag_162\n      swap1\n        /* \"@openzeppelin/contracts/token/ERC20/utils/SafeERC20.sol\":1043:1048   */\n      dup5\n      swap1\n        /* \"@openzeppelin/contracts/token/ERC20/utils/SafeERC20.sol\":1023:1042   */\n      tag_165\n        /* \"@openzeppelin/contracts/token/ERC20/utils/SafeERC20.sol\":1023:1109   */\n      jump\t// in\n    tag_162:\n        /* \"@openzeppelin/contracts/token/ERC20/utils/SafeERC20.sol\":941:1116   */\n      pop\n      pop\n      pop\n      jump\t// out\n        /* \"@openzeppelin/contracts/token/ERC20/utils/SafeERC20.sol\":5173:5815   */\n    tag_165:\n        /* \"@openzeppelin/contracts/token/ERC20/utils/SafeERC20.sol\":5592:5615   */\n      0x00\n        /* \"@openzeppelin/contracts/token/ERC20/utils/SafeERC20.sol\":5618:5687   */\n      tag_167\n        /* \"@openzeppelin/contracts/token/ERC20/utils/SafeERC20.sol\":5646:5650   */\n      dup3\n        /* \"@openzeppelin/contracts/token/ERC20/utils/SafeERC20.sol\":5618:5687   */\n      mload(0x40)\n      dup1\n      0x40\n      add\n      0x40\n      mstore\n      dup1\n      0x20\n      dup2\n      mstore\n      0x20\n      add\n      0x5361666545524332303a206c6f772d6c6576656c2063616c6c206661696c6564\n      dup2\n      mstore\n      pop\n        /* \"@openzeppelin/contracts/token/ERC20/utils/SafeERC20.sol\":5626:5631   */\n      dup6\n      sub(shl(0xa0, 0x01), 0x01)\n        /* \"@openzeppelin/contracts/token/ERC20/utils/SafeERC20.sol\":5618:5645   */\n      and\n      tag_168\n      swap1\n        /* \"@openzeppelin/contracts/token/ERC20/utils/SafeERC20.sol\":5618:5687   */\n      swap3\n      swap2\n      swap1\n      0xffffffff\n      and\n      jump\t// in\n    tag_167:\n        /* \"@openzeppelin/contracts/token/ERC20/utils/SafeERC20.sol\":5592:5687   */\n      swap1\n      pop\n        /* \"@openzeppelin/contracts/token/ERC20/utils/SafeERC20.sol\":5705:5715   */\n      dup1\n        /* \"@openzeppelin/contracts/token/ERC20/utils/SafeERC20.sol\":5705:5722   */\n      mload\n        /* \"@openzeppelin/contracts/token/ERC20/utils/SafeERC20.sol\":5726:5727   */\n      0x00\n        /* \"@openzeppelin/contracts/token/ERC20/utils/SafeERC20.sol\":5705:5727   */\n      eq\n        /* \"@openzeppelin/contracts/token/ERC20/utils/SafeERC20.sol\":5705:5761   */\n      dup1\n      tag_170\n      jumpi\n      pop\n        /* \"@openzeppelin/contracts/token/ERC20/utils/SafeERC20.sol\":5742:5752   */\n      dup1\n        /* \"@openzeppelin/contracts/token/ERC20/utils/SafeERC20.sol\":5731:5761   */\n      dup1\n      0x20\n      add\n      swap1\n      mload\n      dup2\n      add\n      swap1\n      tag_170\n      swap2\n      swap1\n      tag_171\n      jump\t// in\n    tag_170:\n        /* \"@openzeppelin/contracts/token/ERC20/utils/SafeERC20.sol\":5697:5808   */\n      tag_162\n      jumpi\n      mload(0x40)\n      shl(0xe5, 0x461bcd)\n      dup2\n      mstore\n        /* \"#utility.yul\":6889:6891   */\n      0x20\n        /* \"@openzeppelin/contracts/token/ERC20/utils/SafeERC20.sol\":5697:5808   */\n      0x04\n      dup3\n      add\n        /* \"#utility.yul\":6871:6892   */\n      mstore\n        /* \"#utility.yul\":6928:6930   */\n      0x2a\n        /* \"#utility.yul\":6908:6926   */\n      0x24\n      dup3\n      add\n        /* \"#utility.yul\":6901:6931   */\n      mstore\n        /* \"#utility.yul\":6967:7001   */\n      0x5361666545524332303a204552433230206f7065726174696f6e20646964206e\n        /* \"#utility.yul\":6947:6965   */\n      0x44\n      dup3\n      add\n        /* \"#utility.yul\":6940:7002   */\n      mstore\n        /* \"#utility.yul\":7038:7050   */\n      0x6f74207375636365656400000000000000000000000000000000000000000000\n        /* \"#utility.yul\":7018:7036   */\n      0x64\n      dup3\n      add\n        /* \"#utility.yul\":7011:7051   */\n      mstore\n        /* \"#utility.yul\":7068:7087   */\n      0x84\n      add\n        /* \"@openzeppelin/contracts/token/ERC20/utils/SafeERC20.sol\":5697:5808   */\n      tag_57\n        /* \"#utility.yul\":6687:7093   */\n      jump\n        /* \"@openzeppelin/contracts/utils/Address.sol\":4108:4331   */\n    tag_168:\n        /* \"@openzeppelin/contracts/utils/Address.sol\":4241:4253   */\n      0x60\n        /* \"@openzeppelin/contracts/utils/Address.sol\":4272:4324   */\n      tag_176\n        /* \"@openzeppelin/contracts/utils/Address.sol\":4294:4300   */\n      dup5\n        /* \"@openzeppelin/contracts/utils/Address.sol\":4302:4306   */\n      dup5\n        /* \"@openzeppelin/contracts/utils/Address.sol\":4308:4309   */\n      0x00\n        /* \"@openzeppelin/contracts/utils/Address.sol\":4311:4323   */\n      dup6\n        /* \"@openzeppelin/contracts/utils/Address.sol\":4272:4293   */\n      tag_177\n        /* \"@openzeppelin/contracts/utils/Address.sol\":4272:4324   */\n      jump\t// in\n    tag_176:\n        /* \"@openzeppelin/contracts/utils/Address.sol\":4265:4324   */\n      swap5\n        /* \"@openzeppelin/contracts/utils/Address.sol\":4108:4331   */\n      swap4\n      pop\n      pop\n      pop\n      pop\n      jump\t// out\n        /* \"@openzeppelin/contracts/utils/Address.sol\":5165:5611   */\n    tag_177:\n        /* \"@openzeppelin/contracts/utils/Address.sol\":5330:5342   */\n      0x60\n        /* \"@openzeppelin/contracts/utils/Address.sol\":5387:5392   */\n      dup3\n        /* \"@openzeppelin/contracts/utils/Address.sol\":5362:5383   */\n      selfbalance\n        /* \"@openzeppelin/contracts/utils/Address.sol\":5362:5392   */\n      lt\n      iszero\n        /* \"@openzeppelin/contracts/utils/Address.sol\":5354:5435   */\n      tag_179\n      jumpi\n      mload(0x40)\n      shl(0xe5, 0x461bcd)\n      dup2\n      mstore\n        /* \"#utility.yul\":7300:7302   */\n      0x20\n        /* \"@openzeppelin/contracts/utils/Address.sol\":5354:5435   */\n      0x04\n      dup3\n      add\n        /* \"#utility.yul\":7282:7303   */\n      mstore\n        /* \"#utility.yul\":7339:7341   */\n      0x26\n        /* \"#utility.yul\":7319:7337   */\n      0x24\n      dup3\n      add\n        /* \"#utility.yul\":7312:7342   */\n      mstore\n        /* \"#utility.yul\":7378:7412   */\n      0x416464726573733a20696e73756666696369656e742062616c616e636520666f\n        /* \"#utility.yul\":7358:7376   */\n      0x44\n      dup3\n      add\n        /* \"#utility.yul\":7351:7413   */\n      mstore\n        /* \"#utility.yul\":7449:7457   */\n      0x722063616c6c0000000000000000000000000000000000000000000000000000\n        /* \"#utility.yul\":7429:7447   */\n      0x64\n      dup3\n      add\n        /* \"#utility.yul\":7422:7458   */\n      mstore\n        /* \"#utility.yul\":7475:7494   */\n      0x84\n      add\n        /* \"@openzeppelin/contracts/utils/Address.sol\":5354:5435   */\n      tag_57\n        /* \"#utility.yul\":7098:7500   */\n      jump\n        /* \"@openzeppelin/contracts/utils/Address.sol\":5354:5435   */\n    tag_179:\n        /* \"@openzeppelin/contracts/utils/Address.sol\":5446:5458   */\n      0x00\n        /* \"@openzeppelin/contracts/utils/Address.sol\":5460:5483   */\n      dup1\n        /* \"@openzeppelin/contracts/utils/Address.sol\":5487:5493   */\n      dup7\n      sub(shl(0xa0, 0x01), 0x01)\n        /* \"@openzeppelin/contracts/utils/Address.sol\":5487:5498   */\n      and\n        /* \"@openzeppelin/contracts/utils/Address.sol\":5506:5511   */\n      dup6\n        /* \"@openzeppelin/contracts/utils/Address.sol\":5513:5517   */\n      dup8\n        /* \"@openzeppelin/contracts/utils/Address.sol\":5487:5518   */\n      mload(0x40)\n      tag_182\n      swap2\n      swap1\n      tag_183\n      jump\t// in\n    tag_182:\n      0x00\n      mload(0x40)\n      dup1\n      dup4\n      sub\n      dup2\n      dup6\n      dup8\n      gas\n      call\n      swap3\n      pop\n      pop\n      pop\n      returndatasize\n      dup1\n      0x00\n      dup2\n      eq\n      tag_186\n      jumpi\n      mload(0x40)\n      swap2\n      pop\n      and(add(returndatasize, 0x3f), not(0x1f))\n      dup3\n      add\n      0x40\n      mstore\n      returndatasize\n      dup3\n      mstore\n      returndatasize\n      0x00\n      0x20\n      dup5\n      add\n      returndatacopy\n      jump(tag_185)\n    tag_186:\n      0x60\n      swap2\n      pop\n    tag_185:\n      pop\n        /* \"@openzeppelin/contracts/utils/Address.sol\":5445:5518   */\n      swap2\n      pop\n      swap2\n      pop\n        /* \"@openzeppelin/contracts/utils/Address.sol\":5535:5604   */\n      tag_187\n        /* \"@openzeppelin/contracts/utils/Address.sol\":5562:5568   */\n      dup8\n        /* \"@openzeppelin/contracts/utils/Address.sol\":5570:5577   */\n      dup4\n        /* \"@openzeppelin/contracts/utils/Address.sol\":5579:5589   */\n      dup4\n        /* \"@openzeppelin/contracts/utils/Address.sol\":5591:5603   */\n      dup8\n        /* \"@openzeppelin/contracts/utils/Address.sol\":5535:5561   */\n      tag_188\n        /* \"@openzeppelin/contracts/utils/Address.sol\":5535:5604   */\n      jump\t// in\n    tag_187:\n        /* \"@openzeppelin/contracts/utils/Address.sol\":5528:5604   */\n      swap8\n        /* \"@openzeppelin/contracts/utils/Address.sol\":5165:5611   */\n      swap7\n      pop\n      pop\n      pop\n      pop\n      pop\n      pop\n      pop\n      jump\t// out\n        /* \"@openzeppelin/contracts/utils/Address.sol\":7671:8299   */\n    tag_188:\n        /* \"@openzeppelin/contracts/utils/Address.sol\":7851:7863   */\n      0x60\n        /* \"@openzeppelin/contracts/utils/Address.sol\":7879:7886   */\n      dup4\n        /* \"@openzeppelin/contracts/utils/Address.sol\":7875:8293   */\n      iszero\n      tag_190\n      jumpi\n        /* \"@openzeppelin/contracts/utils/Address.sol\":7906:7916   */\n      dup3\n        /* \"@openzeppelin/contracts/utils/Address.sol\":7906:7923   */\n      mload\n        /* \"@openzeppelin/contracts/utils/Address.sol\":7927:7928   */\n      0x00\n        /* \"@openzeppelin/contracts/utils/Address.sol\":7906:7928   */\n      sub\n        /* \"@openzeppelin/contracts/utils/Address.sol\":7902:8188   */\n      tag_194\n      jumpi\n      sub(shl(0xa0, 0x01), 0x01)\n        /* \"@openzeppelin/contracts/utils/Address.sol\":1702:1721   */\n      dup6\n      and\n      extcodesize\n        /* \"@openzeppelin/contracts/utils/Address.sol\":8113:8173   */\n      tag_194\n      jumpi\n      mload(0x40)\n      shl(0xe5, 0x461bcd)\n      dup2\n      mstore\n        /* \"#utility.yul\":8254:8256   */\n      0x20\n        /* \"@openzeppelin/contracts/utils/Address.sol\":8113:8173   */\n      0x04\n      dup3\n      add\n        /* \"#utility.yul\":8236:8257   */\n      mstore\n        /* \"#utility.yul\":8293:8295   */\n      0x1d\n        /* \"#utility.yul\":8273:8291   */\n      0x24\n      dup3\n      add\n        /* \"#utility.yul\":8266:8296   */\n      mstore\n        /* \"#utility.yul\":8332:8363   */\n      0x416464726573733a2063616c6c20746f206e6f6e2d636f6e7472616374000000\n        /* \"#utility.yul\":8312:8330   */\n      0x44\n      dup3\n      add\n        /* \"#utility.yul\":8305:8364   */\n      mstore\n        /* \"#utility.yul\":8381:8399   */\n      0x64\n      add\n        /* \"@openzeppelin/contracts/utils/Address.sol\":8113:8173   */\n      tag_57\n        /* \"#utility.yul\":8052:8405   */\n      jump\n        /* \"@openzeppelin/contracts/utils/Address.sol\":8113:8173   */\n    tag_194:\n      pop\n        /* \"@openzeppelin/contracts/utils/Address.sol\":8208:8218   */\n      dup2\n        /* \"@openzeppelin/contracts/utils/Address.sol\":8201:8218   */\n      jump(tag_176)\n        /* \"@openzeppelin/contracts/utils/Address.sol\":7875:8293   */\n    tag_190:\n        /* \"@openzeppelin/contracts/utils/Address.sol\":8249:8282   */\n      tag_176\n        /* \"@openzeppelin/contracts/utils/Address.sol\":8257:8267   */\n      dup4\n        /* \"@openzeppelin/contracts/utils/Address.sol\":8269:8281   */\n      dup4\n        /* \"@openzeppelin/contracts/utils/Address.sol\":8980:8997   */\n      dup2\n      mload\n        /* \"@openzeppelin/contracts/utils/Address.sol\":8980:9001   */\n      iszero\n        /* \"@openzeppelin/contracts/utils/Address.sol\":8976:9355   */\n      tag_202\n      jumpi\n        /* \"@openzeppelin/contracts/utils/Address.sol\":9208:9218   */\n      dup2\n        /* \"@openzeppelin/contracts/utils/Address.sol\":9202:9219   */\n      mload\n        /* \"@openzeppelin/contracts/utils/Address.sol\":9264:9279   */\n      dup1\n        /* \"@openzeppelin/contracts/utils/Address.sol\":9251:9261   */\n      dup4\n        /* \"@openzeppelin/contracts/utils/Address.sol\":9247:9249   */\n      0x20\n        /* \"@openzeppelin/contracts/utils/Address.sol\":9243:9262   */\n      add\n        /* \"@openzeppelin/contracts/utils/Address.sol\":9236:9280   */\n      revert\n        /* \"@openzeppelin/contracts/utils/Address.sol\":8976:9355   */\n    tag_202:\n        /* \"@openzeppelin/contracts/utils/Address.sol\":9331:9343   */\n      dup1\n        /* \"@openzeppelin/contracts/utils/Address.sol\":9324:9344   */\n      mload(0x40)\n      shl(0xe5, 0x461bcd)\n      dup2\n      mstore\n      0x04\n      add\n      tag_57\n      swap2\n      swap1\n      tag_205\n      jump\t// in\n        /* \"#utility.yul\":14:194   */\n    tag_16:\n        /* \"#utility.yul\":73:79   */\n      0x00\n        /* \"#utility.yul\":126:128   */\n      0x20\n        /* \"#utility.yul\":114:123   */\n      dup3\n        /* \"#utility.yul\":105:112   */\n      dup5\n        /* \"#utility.yul\":101:124   */\n      sub\n        /* \"#utility.yul\":97:129   */\n      slt\n        /* \"#utility.yul\":94:146   */\n      iszero\n      tag_211\n      jumpi\n        /* \"#utility.yul\":142:143   */\n      0x00\n        /* \"#utility.yul\":139:140   */\n      dup1\n        /* \"#utility.yul\":132:144   */\n      revert\n        /* \"#utility.yul\":94:146   */\n    tag_211:\n      pop\n        /* \"#utility.yul\":165:188   */\n      calldataload\n      swap2\n        /* \"#utility.yul\":14:194   */\n      swap1\n      pop\n      jump\t// out\n        /* \"#utility.yul\":199:353   */\n    tag_206:\n      sub(shl(0xa0, 0x01), 0x01)\n        /* \"#utility.yul\":278:283   */\n      dup2\n        /* \"#utility.yul\":274:328   */\n      and\n        /* \"#utility.yul\":267:272   */\n      dup2\n        /* \"#utility.yul\":264:329   */\n      eq\n        /* \"#utility.yul\":254:347   */\n      tag_86\n      jumpi\n        /* \"#utility.yul\":343:344   */\n      0x00\n        /* \"#utility.yul\":340:341   */\n      dup1\n        /* \"#utility.yul\":333:345   */\n      revert\n        /* \"#utility.yul\":358:605   */\n    tag_22:\n        /* \"#utility.yul\":417:423   */\n      0x00\n        /* \"#utility.yul\":470:472   */\n      0x20\n        /* \"#utility.yul\":458:467   */\n      dup3\n        /* \"#utility.yul\":449:456   */\n      dup5\n        /* \"#utility.yul\":445:468   */\n      sub\n        /* \"#utility.yul\":441:473   */\n      slt\n        /* \"#utility.yul\":438:490   */\n      iszero\n      tag_215\n      jumpi\n        /* \"#utility.yul\":486:487   */\n      0x00\n        /* \"#utility.yul\":483:484   */\n      dup1\n        /* \"#utility.yul\":476:488   */\n      revert\n        /* \"#utility.yul\":438:490   */\n    tag_215:\n        /* \"#utility.yul\":525:534   */\n      dup2\n        /* \"#utility.yul\":512:535   */\n      calldataload\n        /* \"#utility.yul\":544:575   */\n      tag_147\n        /* \"#utility.yul\":569:574   */\n      dup2\n        /* \"#utility.yul\":544:575   */\n      tag_206\n      jump\t// in\n        /* \"#utility.yul\":610:1451   */\n    tag_25:\n        /* \"#utility.yul\":835:837   */\n      0x20\n        /* \"#utility.yul\":887:908   */\n      dup1\n      dup3\n      mstore\n        /* \"#utility.yul\":957:970   */\n      dup3\n      mload\n        /* \"#utility.yul\":860:878   */\n      dup3\n      dup3\n      add\n        /* \"#utility.yul\":979:1001   */\n      dup2\n      swap1\n      mstore\n        /* \"#utility.yul\":806:810   */\n      0x00\n      swap2\n        /* \"#utility.yul\":835:837   */\n      swap1\n        /* \"#utility.yul\":1020:1022   */\n      0x40\n      swap1\n        /* \"#utility.yul\":1038:1056   */\n      dup2\n      dup6\n      add\n      swap1\n        /* \"#utility.yul\":1079:1094   */\n      dup7\n      dup5\n      add\n        /* \"#utility.yul\":806:810   */\n      dup6\n        /* \"#utility.yul\":1122:1425   */\n    tag_218:\n        /* \"#utility.yul\":1136:1142   */\n      dup3\n        /* \"#utility.yul\":1133:1134   */\n      dup2\n        /* \"#utility.yul\":1130:1143   */\n      lt\n        /* \"#utility.yul\":1122:1425   */\n      iszero\n      tag_220\n      jumpi\n        /* \"#utility.yul\":1195:1208   */\n      dup2\n      mload\n        /* \"#utility.yul\":1237:1246   */\n      dup1\n      mload\n      sub(shl(0xa0, 0x01), 0x01)\n        /* \"#utility.yul\":1233:1291   */\n      and\n        /* \"#utility.yul\":1221:1292   */\n      dup6\n      mstore\n        /* \"#utility.yul\":1332:1343   */\n      dup7\n      add\n        /* \"#utility.yul\":1326:1344   */\n      mload\n        /* \"#utility.yul\":1312:1324   */\n      dup7\n      dup6\n      add\n        /* \"#utility.yul\":1305:1345   */\n      mstore\n        /* \"#utility.yul\":1365:1377   */\n      swap3\n      dup5\n      add\n      swap3\n        /* \"#utility.yul\":1400:1415   */\n      swap1\n      dup6\n      add\n      swap1\n        /* \"#utility.yul\":1158:1159   */\n      0x01\n        /* \"#utility.yul\":1151:1160   */\n      add\n        /* \"#utility.yul\":1122:1425   */\n      jump(tag_218)\n    tag_220:\n      pop\n        /* \"#utility.yul\":1442:1445   */\n      swap2\n      swap8\n        /* \"#utility.yul\":610:1451   */\n      swap7\n      pop\n      pop\n      pop\n      pop\n      pop\n      pop\n      pop\n      jump\t// out\n        /* \"#utility.yul\":3392:3519   */\n    tag_207:\n        /* \"#utility.yul\":3453:3463   */\n      0x4e487b71\n        /* \"#utility.yul\":3448:3451   */\n      0xe0\n        /* \"#utility.yul\":3444:3464   */\n      shl\n        /* \"#utility.yul\":3441:3442   */\n      0x00\n        /* \"#utility.yul\":3434:3465   */\n      mstore\n        /* \"#utility.yul\":3484:3488   */\n      0x11\n        /* \"#utility.yul\":3481:3482   */\n      0x04\n        /* \"#utility.yul\":3474:3489   */\n      mstore\n        /* \"#utility.yul\":3508:3512   */\n      0x24\n        /* \"#utility.yul\":3505:3506   */\n      0x00\n        /* \"#utility.yul\":3498:3513   */\n      revert\n        /* \"#utility.yul\":3524:3649   */\n    tag_65:\n        /* \"#utility.yul\":3589:3598   */\n      dup1\n      dup3\n      add\n        /* \"#utility.yul\":3610:3620   */\n      dup1\n      dup3\n      gt\n        /* \"#utility.yul\":3607:3643   */\n      iszero\n      tag_158\n      jumpi\n        /* \"#utility.yul\":3623:3641   */\n      tag_158\n      tag_207\n      jump\t// in\n        /* \"#utility.yul\":3654:3781   */\n    tag_71:\n        /* \"#utility.yul\":3715:3725   */\n      0x4e487b71\n        /* \"#utility.yul\":3710:3713   */\n      0xe0\n        /* \"#utility.yul\":3706:3726   */\n      shl\n        /* \"#utility.yul\":3703:3704   */\n      0x00\n        /* \"#utility.yul\":3696:3727   */\n      mstore\n        /* \"#utility.yul\":3746:3750   */\n      0x32\n        /* \"#utility.yul\":3743:3744   */\n      0x04\n        /* \"#utility.yul\":3736:3751   */\n      mstore\n        /* \"#utility.yul\":3770:3774   */\n      0x24\n        /* \"#utility.yul\":3767:3768   */\n      0x00\n        /* \"#utility.yul\":3760:3775   */\n      revert\n        /* \"#utility.yul\":3786:3921   */\n    tag_75:\n        /* \"#utility.yul\":3825:3828   */\n      0x00\n        /* \"#utility.yul\":3846:3863   */\n      0x01\n      dup3\n      add\n        /* \"#utility.yul\":3843:3886   */\n      tag_235\n      jumpi\n        /* \"#utility.yul\":3866:3884   */\n      tag_235\n      tag_207\n      jump\t// in\n    tag_235:\n      pop\n        /* \"#utility.yul\":3913:3914   */\n      0x01\n        /* \"#utility.yul\":3902:3915   */\n      add\n      swap1\n        /* \"#utility.yul\":3786:3921   */\n      jump\t// out\n        /* \"#utility.yul\":3926:4062   */\n    tag_80:\n        /* \"#utility.yul\":3965:3968   */\n      0x00\n        /* \"#utility.yul\":3993:3998   */\n      dup2\n        /* \"#utility.yul\":3983:4022   */\n      tag_238\n      jumpi\n        /* \"#utility.yul\":4002:4020   */\n      tag_238\n      tag_207\n      jump\t// in\n    tag_238:\n      pop\n      not(0x00)\n        /* \"#utility.yul\":4038:4056   */\n      add\n      swap1\n        /* \"#utility.yul\":3926:4062   */\n      jump\t// out\n        /* \"#utility.yul\":4827:4954   */\n    tag_100:\n        /* \"#utility.yul\":4888:4898   */\n      0x4e487b71\n        /* \"#utility.yul\":4883:4886   */\n      0xe0\n        /* \"#utility.yul\":4879:4899   */\n      shl\n        /* \"#utility.yul\":4876:4877   */\n      0x00\n        /* \"#utility.yul\":4869:4900   */\n      mstore\n        /* \"#utility.yul\":4919:4923   */\n      0x41\n        /* \"#utility.yul\":4916:4917   */\n      0x04\n        /* \"#utility.yul\":4909:4924   */\n      mstore\n        /* \"#utility.yul\":4943:4947   */\n      0x24\n        /* \"#utility.yul\":4940:4941   */\n      0x00\n        /* \"#utility.yul\":4933:4948   */\n      revert\n        /* \"#utility.yul\":4959:5210   */\n    tag_135:\n        /* \"#utility.yul\":5029:5035   */\n      0x00\n        /* \"#utility.yul\":5082:5084   */\n      0x20\n        /* \"#utility.yul\":5070:5079   */\n      dup3\n        /* \"#utility.yul\":5061:5068   */\n      dup5\n        /* \"#utility.yul\":5057:5080   */\n      sub\n        /* \"#utility.yul\":5053:5085   */\n      slt\n        /* \"#utility.yul\":5050:5102   */\n      iszero\n      tag_243\n      jumpi\n        /* \"#utility.yul\":5098:5099   */\n      0x00\n        /* \"#utility.yul\":5095:5096   */\n      dup1\n        /* \"#utility.yul\":5088:5100   */\n      revert\n        /* \"#utility.yul\":5050:5102   */\n    tag_243:\n        /* \"#utility.yul\":5130:5139   */\n      dup2\n        /* \"#utility.yul\":5124:5140   */\n      mload\n        /* \"#utility.yul\":5149:5180   */\n      tag_147\n        /* \"#utility.yul\":5174:5179   */\n      dup2\n        /* \"#utility.yul\":5149:5180   */\n      tag_206\n      jump\t// in\n        /* \"#utility.yul\":5575:5703   */\n    tag_154:\n        /* \"#utility.yul\":5642:5651   */\n      dup2\n      dup2\n      sub\n        /* \"#utility.yul\":5663:5674   */\n      dup2\n      dup2\n      gt\n        /* \"#utility.yul\":5660:5697   */\n      iszero\n      tag_158\n      jumpi\n        /* \"#utility.yul\":5677:5695   */\n      tag_158\n      tag_207\n      jump\t// in\n        /* \"#utility.yul\":5708:5876   */\n    tag_156:\n        /* \"#utility.yul\":5781:5790   */\n      dup1\n      dup3\n      mul\n        /* \"#utility.yul\":5812:5821   */\n      dup2\n      iszero\n        /* \"#utility.yul\":5829:5844   */\n      dup3\n      dup3\n      div\n        /* \"#utility.yul\":5823:5845   */\n      dup5\n      eq\n        /* \"#utility.yul\":5809:5846   */\n      or\n        /* \"#utility.yul\":5799:5870   */\n      tag_158\n      jumpi\n        /* \"#utility.yul\":5850:5868   */\n      tag_158\n      tag_207\n      jump\t// in\n        /* \"#utility.yul\":5881:6098   */\n    tag_159:\n        /* \"#utility.yul\":5921:5922   */\n      0x00\n        /* \"#utility.yul\":5947:5948   */\n      dup3\n        /* \"#utility.yul\":5937:6069   */\n      tag_253\n      jumpi\n        /* \"#utility.yul\":5991:6001   */\n      0x4e487b71\n        /* \"#utility.yul\":5986:5989   */\n      0xe0\n        /* \"#utility.yul\":5982:6002   */\n      shl\n        /* \"#utility.yul\":5979:5980   */\n      0x00\n        /* \"#utility.yul\":5972:6003   */\n      mstore\n        /* \"#utility.yul\":6026:6030   */\n      0x12\n        /* \"#utility.yul\":6023:6024   */\n      0x04\n        /* \"#utility.yul\":6016:6031   */\n      mstore\n        /* \"#utility.yul\":6054:6058   */\n      0x24\n        /* \"#utility.yul\":6051:6052   */\n      0x00\n        /* \"#utility.yul\":6044:6059   */\n      revert\n        /* \"#utility.yul\":5937:6069   */\n    tag_253:\n      pop\n        /* \"#utility.yul\":6083:6092   */\n      div\n      swap1\n        /* \"#utility.yul\":5881:6098   */\n      jump\t// out\n        /* \"#utility.yul\":6405:6682   */\n    tag_171:\n        /* \"#utility.yul\":6472:6478   */\n      0x00\n        /* \"#utility.yul\":6525:6527   */\n      0x20\n        /* \"#utility.yul\":6513:6522   */\n      dup3\n        /* \"#utility.yul\":6504:6511   */\n      dup5\n        /* \"#utility.yul\":6500:6523   */\n      sub\n        /* \"#utility.yul\":6496:6528   */\n      slt\n        /* \"#utility.yul\":6493:6545   */\n      iszero\n      tag_256\n      jumpi\n        /* \"#utility.yul\":6541:6542   */\n      0x00\n        /* \"#utility.yul\":6538:6539   */\n      dup1\n        /* \"#utility.yul\":6531:6543   */\n      revert\n        /* \"#utility.yul\":6493:6545   */\n    tag_256:\n        /* \"#utility.yul\":6573:6582   */\n      dup2\n        /* \"#utility.yul\":6567:6583   */\n      mload\n        /* \"#utility.yul\":6626:6631   */\n      dup1\n        /* \"#utility.yul\":6619:6632   */\n      iszero\n        /* \"#utility.yul\":6612:6633   */\n      iszero\n        /* \"#utility.yul\":6605:6610   */\n      dup2\n        /* \"#utility.yul\":6602:6634   */\n      eq\n        /* \"#utility.yul\":6592:6652   */\n      tag_147\n      jumpi\n        /* \"#utility.yul\":6648:6649   */\n      0x00\n        /* \"#utility.yul\":6645:6646   */\n      dup1\n        /* \"#utility.yul\":6638:6650   */\n      revert\n        /* \"#utility.yul\":7505:7755   */\n    tag_208:\n        /* \"#utility.yul\":7590:7591   */\n      0x00\n        /* \"#utility.yul\":7600:7713   */\n    tag_261:\n        /* \"#utility.yul\":7614:7620   */\n      dup4\n        /* \"#utility.yul\":7611:7612   */\n      dup2\n        /* \"#utility.yul\":7608:7621   */\n      lt\n        /* \"#utility.yul\":7600:7713   */\n      iszero\n      tag_263\n      jumpi\n        /* \"#utility.yul\":7690:7701   */\n      dup2\n      dup2\n      add\n        /* \"#utility.yul\":7684:7702   */\n      mload\n        /* \"#utility.yul\":7671:7682   */\n      dup4\n      dup3\n      add\n        /* \"#utility.yul\":7664:7703   */\n      mstore\n        /* \"#utility.yul\":7636:7638   */\n      0x20\n        /* \"#utility.yul\":7629:7639   */\n      add\n        /* \"#utility.yul\":7600:7713   */\n      jump(tag_261)\n    tag_263:\n      pop\n      pop\n        /* \"#utility.yul\":7747:7748   */\n      0x00\n        /* \"#utility.yul\":7729:7745   */\n      swap2\n      add\n        /* \"#utility.yul\":7722:7749   */\n      mstore\n        /* \"#utility.yul\":7505:7755   */\n      jump\t// out\n        /* \"#utility.yul\":7760:8047   */\n    tag_183:\n        /* \"#utility.yul\":7889:7892   */\n      0x00\n        /* \"#utility.yul\":7927:7933   */\n      dup3\n        /* \"#utility.yul\":7921:7934   */\n      mload\n        /* \"#utility.yul\":7943:8009   */\n      tag_265\n        /* \"#utility.yul\":8002:8008   */\n      dup2\n        /* \"#utility.yul\":7997:8000   */\n      dup5\n        /* \"#utility.yul\":7990:7994   */\n      0x20\n        /* \"#utility.yul\":7982:7988   */\n      dup8\n        /* \"#utility.yul\":7978:7995   */\n      add\n        /* \"#utility.yul\":7943:8009   */\n      tag_208\n      jump\t// in\n    tag_265:\n        /* \"#utility.yul\":8025:8041   */\n      swap2\n      swap1\n      swap2\n      add\n      swap3\n        /* \"#utility.yul\":7760:8047   */\n      swap2\n      pop\n      pop\n      jump\t// out\n        /* \"#utility.yul\":8410:8806   */\n    tag_205:\n        /* \"#utility.yul\":8559:8561   */\n      0x20\n        /* \"#utility.yul\":8548:8557   */\n      dup2\n        /* \"#utility.yul\":8541:8562   */\n      mstore\n        /* \"#utility.yul\":8522:8526   */\n      0x00\n        /* \"#utility.yul\":8591:8597   */\n      dup3\n        /* \"#utility.yul\":8585:8598   */\n      mload\n        /* \"#utility.yul\":8634:8640   */\n      dup1\n        /* \"#utility.yul\":8629:8631   */\n      0x20\n        /* \"#utility.yul\":8618:8627   */\n      dup5\n        /* \"#utility.yul\":8614:8632   */\n      add\n        /* \"#utility.yul\":8607:8641   */\n      mstore\n        /* \"#utility.yul\":8650:8729   */\n      tag_268\n        /* \"#utility.yul\":8722:8728   */\n      dup2\n        /* \"#utility.yul\":8717:8719   */\n      0x40\n        /* \"#utility.yul\":8706:8715   */\n      dup6\n        /* \"#utility.yul\":8702:8720   */\n      add\n        /* \"#utility.yul\":8697:8699   */\n      0x20\n        /* \"#utility.yul\":8689:8695   */\n      dup8\n        /* \"#utility.yul\":8685:8700   */\n      add\n        /* \"#utility.yul\":8650:8729   */\n      tag_208\n      jump\t// in\n    tag_268:\n        /* \"#utility.yul\":8790:8792   */\n      0x1f\n        /* \"#utility.yul\":8769:8784   */\n      add\n      not(0x1f)\n        /* \"#utility.yul\":8765:8794   */\n      and\n        /* \"#utility.yul\":8750:8795   */\n      swap2\n      swap1\n      swap2\n      add\n        /* \"#utility.yul\":8797:8799   */\n      0x40\n        /* \"#utility.yul\":8746:8800   */\n      add\n      swap3\n        /* \"#utility.yul\":8410:8806   */\n      swap2\n      pop\n      pop\n      jump\t// out\n\n    auxdata: 0xa264697066735822122001cd8097d7a6a11c283b4c6bf4ac10fe35d6bf7fcce4ef119c3206c1da56ae8764736f6c63430008110033\n}\n",
    "bytecode": {
      "linkReferences": {},
      "object": "60c060405261271060015534801561001657600080fd5b5060405161111538038061111583398101604081905261003591610069565b60016000556001600160a01b0391821660a052166080526100a3565b6001600160a01b038116811461006657600080fd5b50565b6000806040838503121561007c57600080fd5b825161008781610051565b602084015190925061009881610051565b809150509250929050565b60805160a0516110326100e36000396000818160f30152818161042c015281816107e901526108cc0152600081816101b7015261054a01526110326000f3fe608060405234801561001057600080fd5b50600436106100a35760003560e01c80636e947e4511610076578063a694fc3a1161005b578063a694fc3a1461019f578063d1af0c7d146101b2578063f854a27f146101d957600080fd5b80636e947e451461012d5780639168ae721461015657600080fd5b80632e1a7d4d146100a8578063372500ab146100bd57806363c28db1146100c55780636588103b146100ee575b600080fd5b6100bb6100b6366004610dd6565b6101fa565b005b6100bb6104ad565b6100d86100d3366004610e04565b610579565b6040516100e59190610e21565b60405180910390f35b6101157f000000000000000000000000000000000000000000000000000000000000000081565b6040516001600160a01b0390911681526020016100e5565b61011561013b366004610dd6565b6003602052600090815260409020546001600160a01b031681565b610184610164366004610e04565b600260208190526000918252604090912080549181015460039091015483565b604080519384526020840192909252908201526060016100e5565b6100bb6101ad366004610dd6565b610773565b6101157f000000000000000000000000000000000000000000000000000000000000000081565b6101ec6101e7366004610e04565b6109ea565b6040519081526020016100e5565b610202610a22565b336000908152600260205260409020546102635760405162461bcd60e51b815260206004820152601960248201527f596f752068617665206e6f20746f6b656e73207374616b65640000000000000060448201526064015b60405180910390fd5b6000818152600360205260409020546001600160a01b031633146102c95760405162461bcd60e51b815260206004820152601860248201527f596f7520646f6e2774206f776e207468697320746f6b656e0000000000000000604482015260640161025a565b60006102d433610a7b565b336000908152600260205260408120600301805492935083929091906102fb908490610e8f565b9091555060009050805b336000908152600260205260409020600101548110156103775733600090815260026020526040902060010180548591908390811061034657610346610ea2565b9060005260206000209060020201600101540361036557809150610377565b8061036f81610eb8565b915050610305565b5033600090815260026020526040812060010180548390811061039c5761039c610ea2565b6000918252602080832060029283020180546001600160a01b0319166001600160a01b039590951694909417909355338252909152604081208054916103e183610ed1565b90915550506000838152600360205260409081902080546001600160a01b0319169055516323b872dd60e01b8152306004820152336024820152604481018490526001600160a01b037f000000000000000000000000000000000000000000000000000000000000000016906323b872dd90606401600060405180830381600087803b15801561047057600080fd5b505af1158015610484573d6000803e3d6000fd5b505033600090815260026020819052604090912042910155506104aa9250610ad4915050565b50565b3360008181526002602052604081206003015490916104cb90610a7b565b6104d59190610e8f565b9050600081116105275760405162461bcd60e51b815260206004820152601c60248201527f796f752068617665206e6f207265776172647320746f20636c61696d00000000604482015260640161025a565b33600081815260026020819052604082204291810191909155600301556104aa907f00000000000000000000000000000000000000000000000000000000000000006001600160a01b03169083610adb565b6001600160a01b0381166000908152600260205260409020546060901561072f576001600160a01b03821660009081526002602052604081205467ffffffffffffffff8111156105cb576105cb610ee8565b60405190808252806020026020018201604052801561061057816020015b60408051808201909152600080825260208201528152602001906001900390816105e95790505b5090506000805b6001600160a01b038516600090815260026020526040902060010154811015610726576001600160a01b038516600090815260026020526040812060010180548390811061066757610667610ea2565b60009182526020909120600290910201546001600160a01b031614610714576001600160a01b03851660009081526002602052604090206001018054829081106106b3576106b3610ea2565b60009182526020918290206040805180820190915260029092020180546001600160a01b03168252600101549181019190915283518490849081106106fa576106fa610ea2565b6020026020010181905250818061071090610eb8565b9250505b8061071e81610eb8565b915050610617565b50909392505050565b604080516000808252602082019092529061076c565b60408051808201909152600080825260208201528152602001906001900390816107455790505b5092915050565b61077b610a22565b33600090815260026020526040902054156107c957600061079b33610a7b565b336000908152600260205260408120600301805492935083929091906107c2908490610e8f565b9091555050505b6040516331a9108f60e11b81526004810182905233906001600160a01b037f00000000000000000000000000000000000000000000000000000000000000001690636352211e90602401602060405180830381865afa158015610830573d6000803e3d6000fd5b505050506040513d601f19601f820116820180604052508101906108549190610efe565b6001600160a01b0316146108aa5760405162461bcd60e51b815260206004820152601860248201527f596f7520646f6e2774206f776e207468697320746f6b656e0000000000000000604482015260640161025a565b6040516323b872dd60e01b8152336004820152306024820152604481018290527f00000000000000000000000000000000000000000000000000000000000000006001600160a01b0316906323b872dd90606401600060405180830381600087803b15801561091857600080fd5b505af115801561092c573d6000803e3d6000fd5b50506040805180820182523380825260208083018781526000838152600280845295812060018082018054808301825590845294832087519590980290970180546001600160a01b0319166001600160a01b03909516949094178455915192909501919091559083528054919450909250906109a783610eb8565b909155505050600081815260036020908152604080832080546001600160a01b031916339081179091558352600291829052909120429101556104aa6001600055565b6001600160a01b0381166000908152600260205260408120600301548190610a1184610a7b565b610a1b9190610e8f565b9392505050565b600260005403610a745760405162461bcd60e51b815260206004820152601f60248201527f5265656e7472616e637947756172643a207265656e7472616e742063616c6c00604482015260640161025a565b6002600055565b6001546001600160a01b0382166000908152600260208190526040822080549101549192610e1092909190610ab09042610f1b565b610aba9190610f2e565b610ac49190610f2e565b610ace9190610f45565b92915050565b6001600055565b604080516001600160a01b038416602482015260448082018490528251808303909101815260649091019091526020810180517bffffffffffffffffffffffffffffffffffffffffffffffffffffffff1663a9059cbb60e01b179052610b42908490610b47565b505050565b6000610b9c826040518060400160405280602081526020017f5361666545524332303a206c6f772d6c6576656c2063616c6c206661696c6564815250856001600160a01b0316610c2f9092919063ffffffff16565b9050805160001480610bbd575080806020019051810190610bbd9190610f67565b610b425760405162461bcd60e51b815260206004820152602a60248201527f5361666545524332303a204552433230206f7065726174696f6e20646964206e60448201527f6f74207375636365656400000000000000000000000000000000000000000000606482015260840161025a565b6060610c3e8484600085610c46565b949350505050565b606082471015610cbe5760405162461bcd60e51b815260206004820152602660248201527f416464726573733a20696e73756666696369656e742062616c616e636520666f60448201527f722063616c6c0000000000000000000000000000000000000000000000000000606482015260840161025a565b600080866001600160a01b03168587604051610cda9190610fad565b60006040518083038185875af1925050503d8060008114610d17576040519150601f19603f3d011682016040523d82523d6000602084013e610d1c565b606091505b5091509150610d2d87838387610d38565b979650505050505050565b60608315610da7578251600003610da0576001600160a01b0385163b610da05760405162461bcd60e51b815260206004820152601d60248201527f416464726573733a2063616c6c20746f206e6f6e2d636f6e7472616374000000604482015260640161025a565b5081610c3e565b610c3e8383815115610dbc5781518083602001fd5b8060405162461bcd60e51b815260040161025a9190610fc9565b600060208284031215610de857600080fd5b5035919050565b6001600160a01b03811681146104aa57600080fd5b600060208284031215610e1657600080fd5b8135610a1b81610def565b602080825282518282018190526000919060409081850190868401855b82811015610e6c57815180516001600160a01b03168552860151868501529284019290850190600101610e3e565b5091979650505050505050565b634e487b7160e01b600052601160045260246000fd5b80820180821115610ace57610ace610e79565b634e487b7160e01b600052603260045260246000fd5b600060018201610eca57610eca610e79565b5060010190565b600081610ee057610ee0610e79565b506000190190565b634e487b7160e01b600052604160045260246000fd5b600060208284031215610f1057600080fd5b8151610a1b81610def565b81810381811115610ace57610ace610e79565b8082028115828204841417610ace57610ace610e79565b600082610f6257634e487b7160e01b600052601260045260246000fd5b500490565b600060208284031215610f7957600080fd5b81518015158114610a1b57600080fd5b60005b83811015610fa4578181015183820152602001610f8c565b50506000910152565b60008251610fbf818460208701610f89565b9190910192915050565b6020815260008251806020840152610fe8816040850160208701610f89565b601f01601f1916919091016040019291505056fea264697066735822122001cd8097d7a6a11c283b4c6bf4ac10fe35d6bf7fcce4ef119c3206c1da56ae8764736f6c63430008110033",
      "opcodes": "PUSH1 0xC0 PUSH1 0x40 MSTORE PUSH2 0x2710 PUSH1 0x1 SSTORE CALLVALUE DUP1 ISZERO PUSH2 0x16 JUMPI PUSH1 0x0 DUP1 REVERT JUMPDEST POP PUSH1 0x40 MLOAD PUSH2 0x1115 CODESIZE SUB DUP1 PUSH2 0x1115 DUP4 CODECOPY DUP2 ADD PUSH1 0x40 DUP2 SWAP1 MSTORE PUSH2 0x35 SWAP2 PUSH2 0x69 JUMP JUMPDEST PUSH1 0x1 PUSH1 0x0 SSTORE PUSH1 0x1 PUSH1 0x1 PUSH1 0xA0 SHL SUB SWAP2 DUP3 AND PUSH1 0xA0 MSTORE AND PUSH1 0x80 MSTORE PUSH2 0xA3 JUMP JUMPDEST PUSH1 0x1 PUSH1 0x1 PUSH1 0xA0 SHL SUB DUP2 AND DUP2 EQ PUSH2 0x66 JUMPI PUSH1 0x0 DUP1 REVERT JUMPDEST POP JUMP JUMPDEST PUSH1 0x0 DUP1 PUSH1 0x40 DUP4 DUP6 SUB SLT ISZERO PUSH2 0x7C JUMPI PUSH1 0x0 DUP1 REVERT JUMPDEST DUP3 MLOAD PUSH2 0x87 DUP2 PUSH2 0x51 JUMP JUMPDEST PUSH1 0x20 DUP5 ADD MLOAD SWAP1 SWAP3 POP PUSH2 0x98 DUP2 PUSH2 0x51 JUMP JUMPDEST DUP1 SWAP2 POP POP SWAP3 POP SWAP3 SWAP1 POP JUMP JUMPDEST PUSH1 0x80 MLOAD PUSH1 0xA0 MLOAD PUSH2 0x1032 PUSH2 0xE3 PUSH1 0x0 CODECOPY PUSH1 0x0 DUP2 DUP2 PUSH1 0xF3 ADD MSTORE DUP2 DUP2 PUSH2 0x42C ADD MSTORE DUP2 DUP2 PUSH2 0x7E9 ADD MSTORE PUSH2 0x8CC ADD MSTORE PUSH1 0x0 DUP2 DUP2 PUSH2 0x1B7 ADD MSTORE PUSH2 0x54A ADD MSTORE PUSH2 0x1032 PUSH1 0x0 RETURN INVALID PUSH1 0x80 PUSH1 0x40 MSTORE CALLVALUE DUP1 ISZERO PUSH2 0x10 JUMPI PUSH1 0x0 DUP1 REVERT JUMPDEST POP PUSH1 0x4 CALLDATASIZE LT PUSH2 0xA3 JUMPI PUSH1 0x0 CALLDATALOAD PUSH1 0xE0 SHR DUP1 PUSH4 0x6E947E45 GT PUSH2 0x76 JUMPI DUP1 PUSH4 0xA694FC3A GT PUSH2 0x5B JUMPI DUP1 PUSH4 0xA694FC3A EQ PUSH2 0x19F JUMPI DUP1 PUSH4 0xD1AF0C7D EQ PUSH2 0x1B2 JUMPI DUP1 PUSH4 0xF854A27F EQ PUSH2 0x1D9 JUMPI PUSH1 0x0 DUP1 REVERT JUMPDEST DUP1 PUSH4 0x6E947E45 EQ PUSH2 0x12D JUMPI DUP1 PUSH4 0x9168AE72 EQ PUSH2 0x156 JUMPI PUSH1 0x0 DUP1 REVERT JUMPDEST DUP1 PUSH4 0x2E1A7D4D EQ PUSH2 0xA8 JUMPI DUP1 PUSH4 0x372500AB EQ PUSH2 0xBD JUMPI DUP1 PUSH4 0x63C28DB1 EQ PUSH2 0xC5 JUMPI DUP1 PUSH4 0x6588103B EQ PUSH2 0xEE JUMPI JUMPDEST PUSH1 0x0 DUP1 REVERT JUMPDEST PUSH2 0xBB PUSH2 0xB6 CALLDATASIZE PUSH1 0x4 PUSH2 0xDD6 JUMP JUMPDEST PUSH2 0x1FA JUMP JUMPDEST STOP JUMPDEST PUSH2 0xBB PUSH2 0x4AD JUMP JUMPDEST PUSH2 0xD8 PUSH2 0xD3 CALLDATASIZE PUSH1 0x4 PUSH2 0xE04 JUMP JUMPDEST PUSH2 0x579 JUMP JUMPDEST PUSH1 0x40 MLOAD PUSH2 0xE5 SWAP2 SWAP1 PUSH2 0xE21 JUMP JUMPDEST PUSH1 0x40 MLOAD DUP1 SWAP2 SUB SWAP1 RETURN JUMPDEST PUSH2 0x115 PUSH32 0x0 DUP2 JUMP JUMPDEST PUSH1 0x40 MLOAD PUSH1 0x1 PUSH1 0x1 PUSH1 0xA0 SHL SUB SWAP1 SWAP2 AND DUP2 MSTORE PUSH1 0x20 ADD PUSH2 0xE5 JUMP JUMPDEST PUSH2 0x115 PUSH2 0x13B CALLDATASIZE PUSH1 0x4 PUSH2 0xDD6 JUMP JUMPDEST PUSH1 0x3 PUSH1 0x20 MSTORE PUSH1 0x0 SWAP1 DUP2 MSTORE PUSH1 0x40 SWAP1 KECCAK256 SLOAD PUSH1 0x1 PUSH1 0x1 PUSH1 0xA0 SHL SUB AND DUP2 JUMP JUMPDEST PUSH2 0x184 PUSH2 0x164 CALLDATASIZE PUSH1 0x4 PUSH2 0xE04 JUMP JUMPDEST PUSH1 0x2 PUSH1 0x20 DUP2 SWAP1 MSTORE PUSH1 0x0 SWAP2 DUP3 MSTORE PUSH1 0x40 SWAP1 SWAP2 KECCAK256 DUP1 SLOAD SWAP2 DUP2 ADD SLOAD PUSH1 0x3 SWAP1 SWAP2 ADD SLOAD DUP4 JUMP JUMPDEST PUSH1 0x40 DUP1 MLOAD SWAP4 DUP5 MSTORE PUSH1 0x20 DUP5 ADD SWAP3 SWAP1 SWAP3 MSTORE SWAP1 DUP3 ADD MSTORE PUSH1 0x60 ADD PUSH2 0xE5 JUMP JUMPDEST PUSH2 0xBB PUSH2 0x1AD CALLDATASIZE PUSH1 0x4 PUSH2 0xDD6 JUMP JUMPDEST PUSH2 0x773 JUMP JUMPDEST PUSH2 0x115 PUSH32 0x0 DUP2 JUMP JUMPDEST PUSH2 0x1EC PUSH2 0x1E7 CALLDATASIZE PUSH1 0x4 PUSH2 0xE04 JUMP JUMPDEST PUSH2 0x9EA JUMP JUMPDEST PUSH1 0x40 MLOAD SWAP1 DUP2 MSTORE PUSH1 0x20 ADD PUSH2 0xE5 JUMP JUMPDEST PUSH2 0x202 PUSH2 0xA22 JUMP JUMPDEST CALLER PUSH1 0x0 SWAP1 DUP2 MSTORE PUSH1 0x2 PUSH1 0x20 MSTORE PUSH1 0x40 SWAP1 KECCAK256 SLOAD PUSH2 0x263 JUMPI PUSH1 0x40 MLOAD PUSH3 0x461BCD PUSH1 0xE5 SHL DUP2 MSTORE PUSH1 0x20 PUSH1 0x4 DUP3 ADD MSTORE PUSH1 0x19 PUSH1 0x24 DUP3 ADD MSTORE PUSH32 0x596F752068617665206E6F20746F6B656E73207374616B656400000000000000 PUSH1 0x44 DUP3 ADD MSTORE PUSH1 0x64 ADD JUMPDEST PUSH1 0x40 MLOAD DUP1 SWAP2 SUB SWAP1 REVERT JUMPDEST PUSH1 0x0 DUP2 DUP2 MSTORE PUSH1 0x3 PUSH1 0x20 MSTORE PUSH1 0x40 SWAP1 KECCAK256 SLOAD PUSH1 0x1 PUSH1 0x1 PUSH1 0xA0 SHL SUB AND CALLER EQ PUSH2 0x2C9 JUMPI PUSH1 0x40 MLOAD PUSH3 0x461BCD PUSH1 0xE5 SHL DUP2 MSTORE PUSH1 0x20 PUSH1 0x4 DUP3 ADD MSTORE PUSH1 0x18 PUSH1 0x24 DUP3 ADD MSTORE PUSH32 0x596F7520646F6E2774206F776E207468697320746F6B656E0000000000000000 PUSH1 0x44 DUP3 ADD MSTORE PUSH1 0x64 ADD PUSH2 0x25A JUMP JUMPDEST PUSH1 0x0 PUSH2 0x2D4 CALLER PUSH2 0xA7B JUMP JUMPDEST CALLER PUSH1 0x0 SWAP1 DUP2 MSTORE PUSH1 0x2 PUSH1 0x20 MSTORE PUSH1 0x40 DUP2 KECCAK256 PUSH1 0x3 ADD DUP1 SLOAD SWAP3 SWAP4 POP DUP4 SWAP3 SWAP1 SWAP2 SWAP1 PUSH2 0x2FB SWAP1 DUP5 SWAP1 PUSH2 0xE8F JUMP JUMPDEST SWAP1 SWAP2 SSTORE POP PUSH1 0x0 SWAP1 POP DUP1 JUMPDEST CALLER PUSH1 0x0 SWAP1 DUP2 MSTORE PUSH1 0x2 PUSH1 0x20 MSTORE PUSH1 0x40 SWAP1 KECCAK256 PUSH1 0x1 ADD SLOAD DUP2 LT ISZERO PUSH2 0x377 JUMPI CALLER PUSH1 0x0 SWAP1 DUP2 MSTORE PUSH1 0x2 PUSH1 0x20 MSTORE PUSH1 0x40 SWAP1 KECCAK256 PUSH1 0x1 ADD DUP1 SLOAD DUP6 SWAP2 SWAP1 DUP4 SWAP1 DUP2 LT PUSH2 0x346 JUMPI PUSH2 0x346 PUSH2 0xEA2 JUMP JUMPDEST SWAP1 PUSH1 0x0 MSTORE PUSH1 0x20 PUSH1 0x0 KECCAK256 SWAP1 PUSH1 0x2 MUL ADD PUSH1 0x1 ADD SLOAD SUB PUSH2 0x365 JUMPI DUP1 SWAP2 POP PUSH2 0x377 JUMP JUMPDEST DUP1 PUSH2 0x36F DUP2 PUSH2 0xEB8 JUMP JUMPDEST SWAP2 POP POP PUSH2 0x305 JUMP JUMPDEST POP CALLER PUSH1 0x0 SWAP1 DUP2 MSTORE PUSH1 0x2 PUSH1 0x20 MSTORE PUSH1 0x40 DUP2 KECCAK256 PUSH1 0x1 ADD DUP1 SLOAD DUP4 SWAP1 DUP2 LT PUSH2 0x39C JUMPI PUSH2 0x39C PUSH2 0xEA2 JUMP JUMPDEST PUSH1 0x0 SWAP2 DUP3 MSTORE PUSH1 0x20 DUP1 DUP4 KECCAK256 PUSH1 0x2 SWAP3 DUP4 MUL ADD DUP1 SLOAD PUSH1 0x1 PUSH1 0x1 PUSH1 0xA0 SHL SUB NOT AND PUSH1 0x1 PUSH1 0x1 PUSH1 0xA0 SHL SUB SWAP6 SWAP1 SWAP6 AND SWAP5 SWAP1 SWAP5 OR SWAP1 SWAP4 SSTORE CALLER DUP3 MSTORE SWAP1 SWAP2 MSTORE PUSH1 0x40 DUP2 KECCAK256 DUP1 SLOAD SWAP2 PUSH2 0x3E1 DUP4 PUSH2 0xED1 JUMP JUMPDEST SWAP1 SWAP2 SSTORE POP POP PUSH1 0x0 DUP4 DUP2 MSTORE PUSH1 0x3 PUSH1 0x20 MSTORE PUSH1 0x40 SWAP1 DUP2 SWAP1 KECCAK256 DUP1 SLOAD PUSH1 0x1 PUSH1 0x1 PUSH1 0xA0 SHL SUB NOT AND SWAP1 SSTORE MLOAD PUSH4 0x23B872DD PUSH1 0xE0 SHL DUP2 MSTORE ADDRESS PUSH1 0x4 DUP3 ADD MSTORE CALLER PUSH1 0x24 DUP3 ADD MSTORE PUSH1 0x44 DUP2 ADD DUP5 SWAP1 MSTORE PUSH1 0x1 PUSH1 0x1 PUSH1 0xA0 SHL SUB PUSH32 0x0 AND SWAP1 PUSH4 0x23B872DD SWAP1 PUSH1 0x64 ADD PUSH1 0x0 PUSH1 0x40 MLOAD DUP1 DUP4 SUB DUP2 PUSH1 0x0 DUP8 DUP1 EXTCODESIZE ISZERO DUP1 ISZERO PUSH2 0x470 JUMPI PUSH1 0x0 DUP1 REVERT JUMPDEST POP GAS CALL ISZERO DUP1 ISZERO PUSH2 0x484 JUMPI RETURNDATASIZE PUSH1 0x0 DUP1 RETURNDATACOPY RETURNDATASIZE PUSH1 0x0 REVERT JUMPDEST POP POP CALLER PUSH1 0x0 SWAP1 DUP2 MSTORE PUSH1 0x2 PUSH1 0x20 DUP2 SWAP1 MSTORE PUSH1 0x40 SWAP1 SWAP2 KECCAK256 TIMESTAMP SWAP2 ADD SSTORE POP PUSH2 0x4AA SWAP3 POP PUSH2 0xAD4 SWAP2 POP POP JUMP JUMPDEST POP JUMP JUMPDEST CALLER PUSH1 0x0 DUP2 DUP2 MSTORE PUSH1 0x2 PUSH1 0x20 MSTORE PUSH1 0x40 DUP2 KECCAK256 PUSH1 0x3 ADD SLOAD SWAP1 SWAP2 PUSH2 0x4CB SWAP1 PUSH2 0xA7B JUMP JUMPDEST PUSH2 0x4D5 SWAP2 SWAP1 PUSH2 0xE8F JUMP JUMPDEST SWAP1 POP PUSH1 0x0 DUP2 GT PUSH2 0x527 JUMPI PUSH1 0x40 MLOAD PUSH3 0x461BCD PUSH1 0xE5 SHL DUP2 MSTORE PUSH1 0x20 PUSH1 0x4 DUP3 ADD MSTORE PUSH1 0x1C PUSH1 0x24 DUP3 ADD MSTORE PUSH32 0x796F752068617665206E6F207265776172647320746F20636C61696D00000000 PUSH1 0x44 DUP3 ADD MSTORE PUSH1 0x64 ADD PUSH2 0x25A JUMP JUMPDEST CALLER PUSH1 0x0 DUP2 DUP2 MSTORE PUSH1 0x2 PUSH1 0x20 DUP2 SWAP1 MSTORE PUSH1 0x40 DUP3 KECCAK256 TIMESTAMP SWAP2 DUP2 ADD SWAP2 SWAP1 SWAP2 SSTORE PUSH1 0x3 ADD SSTORE PUSH2 0x4AA SWAP1 PUSH32 0x0 PUSH1 0x1 PUSH1 0x1 PUSH1 0xA0 SHL SUB AND SWAP1 DUP4 PUSH2 0xADB JUMP JUMPDEST PUSH1 0x1 PUSH1 0x1 PUSH1 0xA0 SHL SUB DUP2 AND PUSH1 0x0 SWAP1 DUP2 MSTORE PUSH1 0x2 PUSH1 0x20 MSTORE PUSH1 0x40 SWAP1 KECCAK256 SLOAD PUSH1 0x60 SWAP1 ISZERO PUSH2 0x72F JUMPI PUSH1 0x1 PUSH1 0x1 PUSH1 0xA0 SHL SUB DUP3 AND PUSH1 0x0 SWAP1 DUP2 MSTORE PUSH1 0x2 PUSH1 0x20 MSTORE PUSH1 0x40 DUP2 KECCAK256 SLOAD PUSH8 0xFFFFFFFFFFFFFFFF DUP2 GT ISZERO PUSH2 0x5CB JUMPI PUSH2 0x5CB PUSH2 0xEE8 JUMP JUMPDEST PUSH1 0x40 MLOAD SWAP1 DUP1 DUP3 MSTORE DUP1 PUSH1 0x20 MUL PUSH1 0x20 ADD DUP3 ADD PUSH1 0x40 MSTORE DUP1 ISZERO PUSH2 0x610 JUMPI DUP2 PUSH1 0x20 ADD JUMPDEST PUSH1 0x40 DUP1 MLOAD DUP1 DUP3 ADD SWAP1 SWAP2 MSTORE PUSH1 0x0 DUP1 DUP3 MSTORE PUSH1 0x20 DUP3 ADD MSTORE DUP2 MSTORE PUSH1 0x20 ADD SWAP1 PUSH1 0x1 SWAP1 SUB SWAP1 DUP2 PUSH2 0x5E9 JUMPI SWAP1 POP JUMPDEST POP SWAP1 POP PUSH1 0x0 DUP1 JUMPDEST PUSH1 0x1 PUSH1 0x1 PUSH1 0xA0 SHL SUB DUP6 AND PUSH1 0x0 SWAP1 DUP2 MSTORE PUSH1 0x2 PUSH1 0x20 MSTORE PUSH1 0x40 SWAP1 KECCAK256 PUSH1 0x1 ADD SLOAD DUP2 LT ISZERO PUSH2 0x726 JUMPI PUSH1 0x1 PUSH1 0x1 PUSH1 0xA0 SHL SUB DUP6 AND PUSH1 0x0 SWAP1 DUP2 MSTORE PUSH1 0x2 PUSH1 0x20 MSTORE PUSH1 0x40 DUP2 KECCAK256 PUSH1 0x1 ADD DUP1 SLOAD DUP4 SWAP1 DUP2 LT PUSH2 0x667 JUMPI PUSH2 0x667 PUSH2 0xEA2 JUMP JUMPDEST PUSH1 0x0 SWAP2 DUP3 MSTORE PUSH1 0x20 SWAP1 SWAP2 KECCAK256 PUSH1 0x2 SWAP1 SWAP2 MUL ADD SLOAD PUSH1 0x1 PUSH1 0x1 PUSH1 0xA0 SHL SUB AND EQ PUSH2 0x714 JUMPI PUSH1 0x1 PUSH1 0x1 PUSH1 0xA0 SHL SUB DUP6 AND PUSH1 0x0 SWAP1 DUP2 MSTORE PUSH1 0x2 PUSH1 0x20 MSTORE PUSH1 0x40 SWAP1 KECCAK256 PUSH1 0x1 ADD DUP1 SLOAD DUP3 SWAP1 DUP2 LT PUSH2 0x6B3 JUMPI PUSH2 0x6B3 PUSH2 0xEA2 JUMP JUMPDEST PUSH1 0x0 SWAP2 DUP3 MSTORE PUSH1 0x20 SWAP2 DUP3 SWAP1 KECCAK256 PUSH1 0x40 DUP1 MLOAD DUP1 DUP3 ADD SWAP1 SWAP2 MSTORE PUSH1 0x2 SWAP1 SWAP3 MUL ADD DUP1 SLOAD PUSH1 0x1 PUSH1 0x1 PUSH1 0xA0 SHL SUB AND DUP3 MSTORE PUSH1 0x1 ADD SLOAD SWAP2 DUP2 ADD SWAP2 SWAP1 SWAP2 MSTORE DUP4 MLOAD DUP5 SWAP1 DUP5 SWAP1 DUP2 LT PUSH2 0x6FA JUMPI PUSH2 0x6FA PUSH2 0xEA2 JUMP JUMPDEST PUSH1 0x20 MUL PUSH1 0x20 ADD ADD DUP2 SWAP1 MSTORE POP DUP2 DUP1 PUSH2 0x710 SWAP1 PUSH2 0xEB8 JUMP JUMPDEST SWAP3 POP POP JUMPDEST DUP1 PUSH2 0x71E DUP2 PUSH2 0xEB8 JUMP JUMPDEST SWAP2 POP POP PUSH2 0x617 JUMP JUMPDEST POP SWAP1 SWAP4 SWAP3 POP POP POP JUMP JUMPDEST PUSH1 0x40 DUP1 MLOAD PUSH1 0x0 DUP1 DUP3 MSTORE PUSH1 0x20 DUP3 ADD SWAP1 SWAP3 MSTORE SWAP1 PUSH2 0x76C JUMP JUMPDEST PUSH1 0x40 DUP1 MLOAD DUP1 DUP3 ADD SWAP1 SWAP2 MSTORE PUSH1 0x0 DUP1 DUP3 MSTORE PUSH1 0x20 DUP3 ADD MSTORE DUP2 MSTORE PUSH1 0x20 ADD SWAP1 PUSH1 0x1 SWAP1 SUB SWAP1 DUP2 PUSH2 0x745 JUMPI SWAP1 POP JUMPDEST POP SWAP3 SWAP2 POP POP JUMP JUMPDEST PUSH2 0x77B PUSH2 0xA22 JUMP JUMPDEST CALLER PUSH1 0x0 SWAP1 DUP2 MSTORE PUSH1 0x2 PUSH1 0x20 MSTORE PUSH1 0x40 SWAP1 KECCAK256 SLOAD ISZERO PUSH2 0x7C9 JUMPI PUSH1 0x0 PUSH2 0x79B CALLER PUSH2 0xA7B JUMP JUMPDEST CALLER PUSH1 0x0 SWAP1 DUP2 MSTORE PUSH1 0x2 PUSH1 0x20 MSTORE PUSH1 0x40 DUP2 KECCAK256 PUSH1 0x3 ADD DUP1 SLOAD SWAP3 SWAP4 POP DUP4 SWAP3 SWAP1 SWAP2 SWAP1 PUSH2 0x7C2 SWAP1 DUP5 SWAP1 PUSH2 0xE8F JUMP JUMPDEST SWAP1 SWAP2 SSTORE POP POP POP JUMPDEST PUSH1 0x40 MLOAD PUSH4 0x31A9108F PUSH1 0xE1 SHL DUP2 MSTORE PUSH1 0x4 DUP2 ADD DUP3 SWAP1 MSTORE CALLER SWAP1 PUSH1 0x1 PUSH1 0x1 PUSH1 0xA0 SHL SUB PUSH32 0x0 AND SWAP1 PUSH4 0x6352211E SWAP1 PUSH1 0x24 ADD PUSH1 0x20 PUSH1 0x40 MLOAD DUP1 DUP4 SUB DUP2 DUP7 GAS STATICCALL ISZERO DUP1 ISZERO PUSH2 0x830 JUMPI RETURNDATASIZE PUSH1 0x0 DUP1 RETURNDATACOPY RETURNDATASIZE PUSH1 0x0 REVERT JUMPDEST POP POP POP POP PUSH1 0x40 MLOAD RETURNDATASIZE PUSH1 0x1F NOT PUSH1 0x1F DUP3 ADD AND DUP3 ADD DUP1 PUSH1 0x40 MSTORE POP DUP2 ADD SWAP1 PUSH2 0x854 SWAP2 SWAP1 PUSH2 0xEFE JUMP JUMPDEST PUSH1 0x1 PUSH1 0x1 PUSH1 0xA0 SHL SUB AND EQ PUSH2 0x8AA JUMPI PUSH1 0x40 MLOAD PUSH3 0x461BCD PUSH1 0xE5 SHL DUP2 MSTORE PUSH1 0x20 PUSH1 0x4 DUP3 ADD MSTORE PUSH1 0x18 PUSH1 0x24 DUP3 ADD MSTORE PUSH32 0x596F7520646F6E2774206F776E207468697320746F6B656E0000000000000000 PUSH1 0x44 DUP3 ADD MSTORE PUSH1 0x64 ADD PUSH2 0x25A JUMP JUMPDEST PUSH1 0x40 MLOAD PUSH4 0x23B872DD PUSH1 0xE0 SHL DUP2 MSTORE CALLER PUSH1 0x4 DUP3 ADD MSTORE ADDRESS PUSH1 0x24 DUP3 ADD MSTORE PUSH1 0x44 DUP2 ADD DUP3 SWAP1 MSTORE PUSH32 0x0 PUSH1 0x1 PUSH1 0x1 PUSH1 0xA0 SHL SUB AND SWAP1 PUSH4 0x23B872DD SWAP1 PUSH1 0x64 ADD PUSH1 0x0 PUSH1 0x40 MLOAD DUP1 DUP4 SUB DUP2 PUSH1 0x0 DUP8 DUP1 EXTCODESIZE ISZERO DUP1 ISZERO PUSH2 0x918 JUMPI PUSH1 0x0 DUP1 REVERT JUMPDEST POP GAS CALL ISZERO DUP1 ISZERO PUSH2 0x92C JUMPI RETURNDATASIZE PUSH1 0x0 DUP1 RETURNDATACOPY RETURNDATASIZE PUSH1 0x0 REVERT JUMPDEST POP POP PUSH1 0x40 DUP1 MLOAD DUP1 DUP3 ADD DUP3 MSTORE CALLER DUP1 DUP3 MSTORE PUSH1 0x20 DUP1 DUP4 ADD DUP8 DUP2 MSTORE PUSH1 0x0 DUP4 DUP2 MSTORE PUSH1 0x2 DUP1 DUP5 MSTORE SWAP6 DUP2 KECCAK256 PUSH1 0x1 DUP1 DUP3 ADD DUP1 SLOAD DUP1 DUP4 ADD DUP3 SSTORE SWAP1 DUP5 MSTORE SWAP5 DUP4 KECCAK256 DUP8 MLOAD SWAP6 SWAP1 SWAP9 MUL SWAP1 SWAP8 ADD DUP1 SLOAD PUSH1 0x1 PUSH1 0x1 PUSH1 0xA0 SHL SUB NOT AND PUSH1 0x1 PUSH1 0x1 PUSH1 0xA0 SHL SUB SWAP1 SWAP6 AND SWAP5 SWAP1 SWAP5 OR DUP5 SSTORE SWAP2 MLOAD SWAP3 SWAP1 SWAP6 ADD SWAP2 SWAP1 SWAP2 SSTORE SWAP1 DUP4 MSTORE DUP1 SLOAD SWAP2 SWAP5 POP SWAP1 SWAP3 POP SWAP1 PUSH2 0x9A7 DUP4 PUSH2 0xEB8 JUMP JUMPDEST SWAP1 SWAP2 SSTORE POP POP POP PUSH1 0x0 DUP2 DUP2 MSTORE PUSH1 0x3 PUSH1 0x20 SWAP1 DUP2 MSTORE PUSH1 0x40 DUP1 DUP4 KECCAK256 DUP1 SLOAD PUSH1 0x1 PUSH1 0x1 PUSH1 0xA0 SHL SUB NOT AND CALLER SWAP1 DUP2 OR SWAP1 SWAP2 SSTORE DUP4 MSTORE PUSH1 0x2 SWAP2 DUP3 SWAP1 MSTORE SWAP1 SWAP2 KECCAK256 TIMESTAMP SWAP2 ADD SSTORE PUSH2 0x4AA PUSH1 0x1 PUSH1 0x0 SSTORE JUMP JUMPDEST PUSH1 0x1 PUSH1 0x1 PUSH1 0xA0 SHL SUB DUP2 AND PUSH1 0x0 SWAP1 DUP2 MSTORE PUSH1 0x2 PUSH1 0x20 MSTORE PUSH1 0x40 DUP2 KECCAK256 PUSH1 0x3 ADD SLOAD DUP2 SWAP1 PUSH2 0xA11 DUP5 PUSH2 0xA7B JUMP JUMPDEST PUSH2 0xA1B SWAP2 SWAP1 PUSH2 0xE8F JUMP JUMPDEST SWAP4 SWAP3 POP POP POP JUMP JUMPDEST PUSH1 0x2 PUSH1 0x0 SLOAD SUB PUSH2 0xA74 JUMPI PUSH1 0x40 MLOAD PUSH3 0x461BCD PUSH1 0xE5 SHL DUP2 MSTORE PUSH1 0x20 PUSH1 0x4 DUP3 ADD MSTORE PUSH1 0x1F PUSH1 0x24 DUP3 ADD MSTORE PUSH32 0x5265656E7472616E637947756172643A207265656E7472616E742063616C6C00 PUSH1 0x44 DUP3 ADD MSTORE PUSH1 0x64 ADD PUSH2 0x25A JUMP JUMPDEST PUSH1 0x2 PUSH1 0x0 SSTORE JUMP JUMPDEST PUSH1 0x1 SLOAD PUSH1 0x1 PUSH1 0x1 PUSH1 0xA0 SHL SUB DUP3 AND PUSH1 0x0 SWAP1 DUP2 MSTORE PUSH1 0x2 PUSH1 0x20 DUP2 SWAP1 MSTORE PUSH1 0x40 DUP3 KECCAK256 DUP1 SLOAD SWAP2 ADD SLOAD SWAP2 SWAP3 PUSH2 0xE10 SWAP3 SWAP1 SWAP2 SWAP1 PUSH2 0xAB0 SWAP1 TIMESTAMP PUSH2 0xF1B JUMP JUMPDEST PUSH2 0xABA SWAP2 SWAP1 PUSH2 0xF2E JUMP JUMPDEST PUSH2 0xAC4 SWAP2 SWAP1 PUSH2 0xF2E JUMP JUMPDEST PUSH2 0xACE SWAP2 SWAP1 PUSH2 0xF45 JUMP JUMPDEST SWAP3 SWAP2 POP POP JUMP JUMPDEST PUSH1 0x1 PUSH1 0x0 SSTORE JUMP JUMPDEST PUSH1 0x40 DUP1 MLOAD PUSH1 0x1 PUSH1 0x1 PUSH1 0xA0 SHL SUB DUP5 AND PUSH1 0x24 DUP3 ADD MSTORE PUSH1 0x44 DUP1 DUP3 ADD DUP5 SWAP1 MSTORE DUP3 MLOAD DUP1 DUP4 SUB SWAP1 SWAP2 ADD DUP2 MSTORE PUSH1 0x64 SWAP1 SWAP2 ADD SWAP1 SWAP2 MSTORE PUSH1 0x20 DUP2 ADD DUP1 MLOAD PUSH28 0xFFFFFFFFFFFFFFFFFFFFFFFFFFFFFFFFFFFFFFFFFFFFFFFFFFFFFFFF AND PUSH4 0xA9059CBB PUSH1 0xE0 SHL OR SWAP1 MSTORE PUSH2 0xB42 SWAP1 DUP5 SWAP1 PUSH2 0xB47 JUMP JUMPDEST POP POP POP JUMP JUMPDEST PUSH1 0x0 PUSH2 0xB9C DUP3 PUSH1 0x40 MLOAD DUP1 PUSH1 0x40 ADD PUSH1 0x40 MSTORE DUP1 PUSH1 0x20 DUP2 MSTORE PUSH1 0x20 ADD PUSH32 0x5361666545524332303A206C6F772D6C6576656C2063616C6C206661696C6564 DUP2 MSTORE POP DUP6 PUSH1 0x1 PUSH1 0x1 PUSH1 0xA0 SHL SUB AND PUSH2 0xC2F SWAP1 SWAP3 SWAP2 SWAP1 PUSH4 0xFFFFFFFF AND JUMP JUMPDEST SWAP1 POP DUP1 MLOAD PUSH1 0x0 EQ DUP1 PUSH2 0xBBD JUMPI POP DUP1 DUP1 PUSH1 0x20 ADD SWAP1 MLOAD DUP2 ADD SWAP1 PUSH2 0xBBD SWAP2 SWAP1 PUSH2 0xF67 JUMP JUMPDEST PUSH2 0xB42 JUMPI PUSH1 0x40 MLOAD PUSH3 0x461BCD PUSH1 0xE5 SHL DUP2 MSTORE PUSH1 0x20 PUSH1 0x4 DUP3 ADD MSTORE PUSH1 0x2A PUSH1 0x24 DUP3 ADD MSTORE PUSH32 0x5361666545524332303A204552433230206F7065726174696F6E20646964206E PUSH1 0x44 DUP3 ADD MSTORE PUSH32 0x6F74207375636365656400000000000000000000000000000000000000000000 PUSH1 0x64 DUP3 ADD MSTORE PUSH1 0x84 ADD PUSH2 0x25A JUMP JUMPDEST PUSH1 0x60 PUSH2 0xC3E DUP5 DUP5 PUSH1 0x0 DUP6 PUSH2 0xC46 JUMP JUMPDEST SWAP5 SWAP4 POP POP POP POP JUMP JUMPDEST PUSH1 0x60 DUP3 SELFBALANCE LT ISZERO PUSH2 0xCBE JUMPI PUSH1 0x40 MLOAD PUSH3 0x461BCD PUSH1 0xE5 SHL DUP2 MSTORE PUSH1 0x20 PUSH1 0x4 DUP3 ADD MSTORE PUSH1 0x26 PUSH1 0x24 DUP3 ADD MSTORE PUSH32 0x416464726573733A20696E73756666696369656E742062616C616E636520666F PUSH1 0x44 DUP3 ADD MSTORE PUSH32 0x722063616C6C0000000000000000000000000000000000000000000000000000 PUSH1 0x64 DUP3 ADD MSTORE PUSH1 0x84 ADD PUSH2 0x25A JUMP JUMPDEST PUSH1 0x0 DUP1 DUP7 PUSH1 0x1 PUSH1 0x1 PUSH1 0xA0 SHL SUB AND DUP6 DUP8 PUSH1 0x40 MLOAD PUSH2 0xCDA SWAP2 SWAP1 PUSH2 0xFAD JUMP JUMPDEST PUSH1 0x0 PUSH1 0x40 MLOAD DUP1 DUP4 SUB DUP2 DUP6 DUP8 GAS CALL SWAP3 POP POP POP RETURNDATASIZE DUP1 PUSH1 0x0 DUP2 EQ PUSH2 0xD17 JUMPI PUSH1 0x40 MLOAD SWAP2 POP PUSH1 0x1F NOT PUSH1 0x3F RETURNDATASIZE ADD AND DUP3 ADD PUSH1 0x40 MSTORE RETURNDATASIZE DUP3 MSTORE RETURNDATASIZE PUSH1 0x0 PUSH1 0x20 DUP5 ADD RETURNDATACOPY PUSH2 0xD1C JUMP JUMPDEST PUSH1 0x60 SWAP2 POP JUMPDEST POP SWAP2 POP SWAP2 POP PUSH2 0xD2D DUP8 DUP4 DUP4 DUP8 PUSH2 0xD38 JUMP JUMPDEST SWAP8 SWAP7 POP POP POP POP POP POP POP JUMP JUMPDEST PUSH1 0x60 DUP4 ISZERO PUSH2 0xDA7 JUMPI DUP3 MLOAD PUSH1 0x0 SUB PUSH2 0xDA0 JUMPI PUSH1 0x1 PUSH1 0x1 PUSH1 0xA0 SHL SUB DUP6 AND EXTCODESIZE PUSH2 0xDA0 JUMPI PUSH1 0x40 MLOAD PUSH3 0x461BCD PUSH1 0xE5 SHL DUP2 MSTORE PUSH1 0x20 PUSH1 0x4 DUP3 ADD MSTORE PUSH1 0x1D PUSH1 0x24 DUP3 ADD MSTORE PUSH32 0x416464726573733A2063616C6C20746F206E6F6E2D636F6E7472616374000000 PUSH1 0x44 DUP3 ADD MSTORE PUSH1 0x64 ADD PUSH2 0x25A JUMP JUMPDEST POP DUP2 PUSH2 0xC3E JUMP JUMPDEST PUSH2 0xC3E DUP4 DUP4 DUP2 MLOAD ISZERO PUSH2 0xDBC JUMPI DUP2 MLOAD DUP1 DUP4 PUSH1 0x20 ADD REVERT JUMPDEST DUP1 PUSH1 0x40 MLOAD PUSH3 0x461BCD PUSH1 0xE5 SHL DUP2 MSTORE PUSH1 0x4 ADD PUSH2 0x25A SWAP2 SWAP1 PUSH2 0xFC9 JUMP JUMPDEST PUSH1 0x0 PUSH1 0x20 DUP3 DUP5 SUB SLT ISZERO PUSH2 0xDE8 JUMPI PUSH1 0x0 DUP1 REVERT JUMPDEST POP CALLDATALOAD SWAP2 SWAP1 POP JUMP JUMPDEST PUSH1 0x1 PUSH1 0x1 PUSH1 0xA0 SHL SUB DUP2 AND DUP2 EQ PUSH2 0x4AA JUMPI PUSH1 0x0 DUP1 REVERT JUMPDEST PUSH1 0x0 PUSH1 0x20 DUP3 DUP5 SUB SLT ISZERO PUSH2 0xE16 JUMPI PUSH1 0x0 DUP1 REVERT JUMPDEST DUP2 CALLDATALOAD PUSH2 0xA1B DUP2 PUSH2 0xDEF JUMP JUMPDEST PUSH1 0x20 DUP1 DUP3 MSTORE DUP3 MLOAD DUP3 DUP3 ADD DUP2 SWAP1 MSTORE PUSH1 0x0 SWAP2 SWAP1 PUSH1 0x40 SWAP1 DUP2 DUP6 ADD SWAP1 DUP7 DUP5 ADD DUP6 JUMPDEST DUP3 DUP2 LT ISZERO PUSH2 0xE6C JUMPI DUP2 MLOAD DUP1 MLOAD PUSH1 0x1 PUSH1 0x1 PUSH1 0xA0 SHL SUB AND DUP6 MSTORE DUP7 ADD MLOAD DUP7 DUP6 ADD MSTORE SWAP3 DUP5 ADD SWAP3 SWAP1 DUP6 ADD SWAP1 PUSH1 0x1 ADD PUSH2 0xE3E JUMP JUMPDEST POP SWAP2 SWAP8 SWAP7 POP POP POP POP POP POP POP JUMP JUMPDEST PUSH4 0x4E487B71 PUSH1 0xE0 SHL PUSH1 0x0 MSTORE PUSH1 0x11 PUSH1 0x4 MSTORE PUSH1 0x24 PUSH1 0x0 REVERT JUMPDEST DUP1 DUP3 ADD DUP1 DUP3 GT ISZERO PUSH2 0xACE JUMPI PUSH2 0xACE PUSH2 0xE79 JUMP JUMPDEST PUSH4 0x4E487B71 PUSH1 0xE0 SHL PUSH1 0x0 MSTORE PUSH1 0x32 PUSH1 0x4 MSTORE PUSH1 0x24 PUSH1 0x0 REVERT JUMPDEST PUSH1 0x0 PUSH1 0x1 DUP3 ADD PUSH2 0xECA JUMPI PUSH2 0xECA PUSH2 0xE79 JUMP JUMPDEST POP PUSH1 0x1 ADD SWAP1 JUMP JUMPDEST PUSH1 0x0 DUP2 PUSH2 0xEE0 JUMPI PUSH2 0xEE0 PUSH2 0xE79 JUMP JUMPDEST POP PUSH1 0x0 NOT ADD SWAP1 JUMP JUMPDEST PUSH4 0x4E487B71 PUSH1 0xE0 SHL PUSH1 0x0 MSTORE PUSH1 0x41 PUSH1 0x4 MSTORE PUSH1 0x24 PUSH1 0x0 REVERT JUMPDEST PUSH1 0x0 PUSH1 0x20 DUP3 DUP5 SUB SLT ISZERO PUSH2 0xF10 JUMPI PUSH1 0x0 DUP1 REVERT JUMPDEST DUP2 MLOAD PUSH2 0xA1B DUP2 PUSH2 0xDEF JUMP JUMPDEST DUP2 DUP2 SUB DUP2 DUP2 GT ISZERO PUSH2 0xACE JUMPI PUSH2 0xACE PUSH2 0xE79 JUMP JUMPDEST DUP1 DUP3 MUL DUP2 ISZERO DUP3 DUP3 DIV DUP5 EQ OR PUSH2 0xACE JUMPI PUSH2 0xACE PUSH2 0xE79 JUMP JUMPDEST PUSH1 0x0 DUP3 PUSH2 0xF62 JUMPI PUSH4 0x4E487B71 PUSH1 0xE0 SHL PUSH1 0x0 MSTORE PUSH1 0x12 PUSH1 0x4 MSTORE PUSH1 0x24 PUSH1 0x0 REVERT JUMPDEST POP DIV SWAP1 JUMP JUMPDEST PUSH1 0x0 PUSH1 0x20 DUP3 DUP5 SUB SLT ISZERO PUSH2 0xF79 JUMPI PUSH1 0x0 DUP1 REVERT JUMPDEST DUP2 MLOAD DUP1 ISZERO ISZERO DUP2 EQ PUSH2 0xA1B JUMPI PUSH1 0x0 DUP1 REVERT JUMPDEST PUSH1 0x0 JUMPDEST DUP4 DUP2 LT ISZERO PUSH2 0xFA4 JUMPI DUP2 DUP2 ADD MLOAD DUP4 DUP3 ADD MSTORE PUSH1 0x20 ADD PUSH2 0xF8C JUMP JUMPDEST POP POP PUSH1 0x0 SWAP2 ADD MSTORE JUMP JUMPDEST PUSH1 0x0 DUP3 MLOAD PUSH2 0xFBF DUP2 DUP5 PUSH1 0x20 DUP8 ADD PUSH2 0xF89 JUMP JUMPDEST SWAP2 SWAP1 SWAP2 ADD SWAP3 SWAP2 POP POP JUMP JUMPDEST PUSH1 0x20 DUP2 MSTORE PUSH1 0x0 DUP3 MLOAD DUP1 PUSH1 0x20 DUP5 ADD MSTORE PUSH2 0xFE8 DUP2 PUSH1 0x40 DUP6 ADD PUSH1 0x20 DUP8 ADD PUSH2 0xF89 JUMP JUMPDEST PUSH1 0x1F ADD PUSH1 0x1F NOT AND SWAP2 SWAP1 SWAP2 ADD PUSH1 0x40 ADD SWAP3 SWAP2 POP POP JUMP INVALID LOG2 PUSH5 0x6970667358 0x22 SLT KECCAK256 ADD 0xCD DUP1 SWAP8 0xD7 0xA6 LOG1 SHR 0x28 EXTCODESIZE 0x4C PUSH12 0xF4AC10FE35D6BF7FCCE4EF11 SWAP13 ORIGIN MOD 0xC1 0xDA JUMP 0xAE DUP8 PUSH5 0x736F6C6343 STOP ADDMOD GT STOP CALLER "
    },
    "gasEstimates": {
      "creation": {
        "codeDepositCost": "829200",
        "executionCost": "infinite",
        "totalCost": "infinite"
      },
      "external": {
        "availableRewards(address)": "infinite",
        "claimRewards()": "infinite",
        "getStakedTokens(address)": "infinite",
        "nftCollection()": "infinite",
        "rewardsToken()": "infinite",
        "stake(uint256)": "infinite",
        "stakerAdress(uint256)": "2500",
        "stakers(address)": "6833",
        "withdraw(uint256)": "infinite"
      },
      "internal": {
        "calculateRewards(address)": "infinite"
      }
    },
    "methodIdentifiers": {
      "availableRewards(address)": "f854a27f",
      "claimRewards()": "372500ab",
      "getStakedTokens(address)": "63c28db1",
      "nftCollection()": "6588103b",
      "rewardsToken()": "d1af0c7d",
      "stake(uint256)": "a694fc3a",
      "stakerAdress(uint256)": "6e947e45",
      "stakers(address)": "9168ae72",
      "withdraw(uint256)": "2e1a7d4d"
    }
  },
  "storageLayout": {
    "storage": [
      {
        "astId": 499,
        "contract": "NftStaking.sol:ERC721Staking",
        "label": "_status",
        "offset": 0,
        "slot": "0",
        "type": "t_uint256"
      },
      {
        "astId": 57,
        "contract": "NftStaking.sol:ERC721Staking",
        "label": "rewardsPerHour",
        "offset": 0,
        "slot": "1",
        "type": "t_uint256"
      },
      {
        "astId": 62,
        "contract": "NftStaking.sol:ERC721Staking",
        "label": "stakers",
        "offset": 0,
        "slot": "2",
        "type": "t_mapping(t_address,t_struct(Staker)54_storage)"
      },
      {
        "astId": 66,
        "contract": "NftStaking.sol:ERC721Staking",
        "label": "stakerAdress",
        "offset": 0,
        "slot": "3",
        "type": "t_mapping(t_uint256,t_address)"
      }
    ],
    "types": {
      "t_address": {
        "encoding": "inplace",
        "label": "address",
        "numberOfBytes": "20"
      },
      "t_array(t_struct(StakedToken)43_storage)dyn_storage": {
        "base": "t_struct(StakedToken)43_storage",
        "encoding": "dynamic_array",
        "label": "struct ERC721Staking.StakedToken[]",
        "numberOfBytes": "32"
      },
      "t_mapping(t_address,t_struct(Staker)54_storage)": {
        "encoding": "mapping",
        "key": "t_address",
        "label": "mapping(address => struct ERC721Staking.Staker)",
        "numberOfBytes": "32",
        "value": "t_struct(Staker)54_storage"
      },
      "t_mapping(t_uint256,t_address)": {
        "encoding": "mapping",
        "key": "t_uint256",
        "label": "mapping(uint256 => address)",
        "numberOfBytes": "32",
        "value": "t_address"
      },
      "t_struct(StakedToken)43_storage": {
        "encoding": "inplace",
        "label": "struct ERC721Staking.StakedToken",
        "members": [
          {
            "astId": 40,
            "contract": "NftStaking.sol:ERC721Staking",
            "label": "staker",
            "offset": 0,
            "slot": "0",
            "type": "t_address"
          },
          {
            "astId": 42,
            "contract": "NftStaking.sol:ERC721Staking",
            "label": "tokenId",
            "offset": 0,
            "slot": "1",
            "type": "t_uint256"
          }
        ],
        "numberOfBytes": "64"
      },
      "t_struct(Staker)54_storage": {
        "encoding": "inplace",
        "label": "struct ERC721Staking.Staker",
        "members": [
          {
            "astId": 45,
            "contract": "NftStaking.sol:ERC721Staking",
            "label": "amountStaked",
            "offset": 0,
            "slot": "0",
            "type": "t_uint256"
          },
          {
            "astId": 49,
            "contract": "NftStaking.sol:ERC721Staking",
            "label": "stakedTokens",
            "offset": 0,
            "slot": "1",
            "type": "t_array(t_struct(StakedToken)43_storage)dyn_storage"
          },
          {
            "astId": 51,
            "contract": "NftStaking.sol:ERC721Staking",
            "label": "timeOfLastUpdate",
            "offset": 0,
            "slot": "2",
            "type": "t_uint256"
          },
          {
            "astId": 53,
            "contract": "NftStaking.sol:ERC721Staking",
            "label": "unclaimedRewards",
            "offset": 0,
            "slot": "3",
            "type": "t_uint256"
          }
        ],
        "numberOfBytes": "128"
      },
      "t_uint256": {
        "encoding": "inplace",
        "label": "uint256",
        "numberOfBytes": "32"
      }
    }
  },
  "userdoc": {
    "kind": "user",
    "methods": {},
    "version": 1
  }
}